{
	"data": {
		"bytecode": {
			"linkReferences": {},
			"object": "60806040526000600855600b805461ffff60a01b1916601960a21b1790553480156200002a57600080fd5b50604051620026f8380380620026f88339810160408190526200004d91620000ef565b600062000059620000eb565b600080546001600160a01b0319166001600160a01b0383169081178255604051929350917f8be0079c531659141344cd1fd0a4f28419497f9722a3daafe3b4186f6b6457e0908290a35060018055600280546001600160a01b039094166001600160a01b0319948516179055600991909155600555600380548216339081179091556004805490921617905562000132565b3390565b60008060006060848603121562000104578283fd5b83516001600160a01b03811681146200011b578384fd5b602085015160409095015190969495509392505050565b6125b680620001426000396000f3fe608060405234801561001057600080fd5b50600436106101fb5760003560e01c806355dbc8261161011a5780638dbdbe6d116100ad578063cdf930571161007c578063cdf93057146103db578063d0d41fe1146103ee578063d30ef61b14610401578063de73149d14610409578063f2fde38b14610411576101fb565b80638dbdbe6d1461038a5780638faf3a581461039d57806393f1a40b146103a5578063af018de8146103c8576101fb565b80638705fcd4116100e95780638705fcd4146103545780638aa28550146103675780638da5cb5b1461036f5780638dbb1e3a14610377576101fb565b806355dbc82614610329578063630b5ba11461033c578063715018a614610344578063844035891461034c576101fb565b8063441a3e701161019257806348cd4cb11161016157806348cd4cb1146102e85780634d6251b2146102f057806351eb05a6146103035780635312ea8e14610316576101fb565b8063441a3e70146102b057806346111e7a146102c3578063474fa630146102cb57806348b22bfb146102d3576101fb565b80632143e545116101ce5780632143e545146102605780632e6c998d146102735780633ad10ef61461029357806341275358146102a8576101fb565b8063081e3eda146102005780630ba84cd21461021e5780631526fe271461023357806317caf6f114610258575b600080fd5b610208610424565b6040516102159190612450565b60405180910390f35b61023161022c366004611e2c565b61042a565b005b610246610241366004611e2c565b6104c4565b60405161021596959493929190612004565b61020861051b565b61023161026e366004611f42565b610521565b610286610281366004611e5c565b6106d0565b6040516102159190611ff9565b61029b6106fe565b6040516102159190611f8e565b61029b61070d565b6102316102be366004611ee9565b61071c565b61029b61085b565b61020861086a565b6102db610870565b6040516102159190612441565b610208610876565b6102316102fe366004611da0565b61087c565b610231610311366004611e2c565b6108dd565b610231610324366004611e2c565b610b1b565b610231610337366004611df4565b610c01565b610231610c88565b610231610cb3565b610208610d3c565b610231610362366004611da0565b610d42565b610208610db4565b61029b610db9565b610208610385366004611ee9565b610dc8565b610231610398366004611f0a565b610de0565b61029b6110d8565b6103b86103b3366004611e5c565b6110e7565b6040516102159493929190612467565b6102316103d6366004611e8b565b611119565b6102086103e9366004611e5c565b611335565b6102316103fc366004611da0565b6114cf565b6102db611541565b610208611552565b61023161041f366004611da0565b611559565b60065490565b610432611619565b6001600160a01b0316610443610db9565b6001600160a01b0316146104725760405162461bcd60e51b815260040161046990612304565b60405180910390fd5b61047a610c88565b336001600160a01b03167feedc6338c9c1ad8f3cd6c90dd09dbe98dbd57e610d3e59a17996d07acb0d9511600554836040516104b7929190612459565b60405180910390a2600555565b600681815481106104d457600080fd5b60009182526020909120600690910201805460018201546002830154600384015460048501546005909501546001600160a01b0390941695509193909261ffff9091169086565b60085481565b610529611619565b6001600160a01b031661053a610db9565b6001600160a01b0316146105605760405162461bcd60e51b815260040161046990612304565b6127108361ffff1611156105865760405162461bcd60e51b8152600401610469906122bf565b621275008211156105a95760405162461bcd60e51b815260040161046990612339565b80156105b7576105b7610c88565b61060884610602600688815481106105df57634e487b7160e01b600052603260045260246000fd5b90600052602060002090600602016001015460085461161d90919063ffffffff16565b90611629565b600881905550836006868154811061063057634e487b7160e01b600052603260045260246000fd5b906000526020600020906006020160010181905550826006868154811061066757634e487b7160e01b600052603260045260246000fd5b906000526020600020906006020160040160006101000a81548161ffff021916908361ffff16021790555081600686815481106106b457634e487b7160e01b600052603260045260246000fd5b9060005260206000209060060201600501819055505050505050565b60009182526007602090815260408084206001600160a01b0393909316845291905290206003015442101590565b6003546001600160a01b031681565b6004546001600160a01b031681565b6002600154141561073f5760405162461bcd60e51b81526004016104699061240a565b600260018190555060006006838154811061076a57634e487b7160e01b600052603260045260246000fd5b6000918252602080832086845260078252604080852033865290925292208054600690920290920192508311156107b35760405162461bcd60e51b8152600401610469906123a7565b6107bc846108dd565b6107c584611635565b82156107ef5780546107d7908461161d565b815581546107ef906001600160a01b031633856117d1565b600382015481546108109164e8d4a510009161080a9161182c565b90611838565b6001820155604051849033907ff279e6a1f5e320cca91135676d9cb6e44ca8a08c0b88342bcdb1144f6511b56890610849908790612450565b60405180910390a35050600180555050565b6002546001600160a01b031681565b600a5481565b6103e881565b60095481565b610884611619565b6001600160a01b0316610895610db9565b6001600160a01b0316146108bb5760405162461bcd60e51b815260040161046990612304565b600b80546001600160a01b0319166001600160a01b0392909216919091179055565b60006006828154811061090057634e487b7160e01b600052603260045260246000fd5b90600052602060002090600602019050806002015443116109215750610b18565b80546040516370a0823160e01b81526000916001600160a01b0316906370a0823190610951903090600401611f8e565b60206040518083038186803b15801561096957600080fd5b505afa15801561097d573d6000803e3d6000fd5b505050506040513d601f19601f820116820180604052508101906109a19190611e44565b90508015806109b257506001820154155b156109c4575043600290910155610b18565b60006109d4836002015443610dc8565b90506000610a0160085461080a86600101546109fb6005548761182c90919063ffffffff16565b9061182c565b6002546003549192506001600160a01b03908116916340c10f199116610a2884600a611838565b6040518363ffffffff1660e01b8152600401610a45929190611fe0565b600060405180830381600087803b158015610a5f57600080fd5b505af1158015610a73573d6000803e3d6000fd5b50506002546040516340c10f1960e01b81526001600160a01b0390911692506340c10f199150610aa99030908590600401611fe0565b600060405180830381600087803b158015610ac357600080fd5b505af1158015610ad7573d6000803e3d6000fd5b50505050610b05610afa8461080a64e8d4a510008561182c90919063ffffffff16565b600386015490611629565b6003850155505043600290920191909155505b50565b60026001541415610b3e5760405162461bcd60e51b81526004016104699061240a565b6002600181905550600060068281548110610b6957634e487b7160e01b600052603260045260246000fd5b6000918252602080832085845260078252604080852033808752935284208054858255600182018690556002820186905560038201959095556006909302018054909450919291610bc7916001600160a01b039190911690836117d1565b83336001600160a01b03167fbb757047c2b5f3974fe26b7c10f732e7bce710b0952a71082702781e62ae0595836040516108499190612450565b610c09611619565b6001600160a01b0316610c1a610db9565b6001600160a01b031614610c405760405162461bcd60e51b815260040161046990612304565b6103e861ffff82161115610c665760405162461bcd60e51b8152600401610469906120b3565b600b805461ffff909216600160a01b0261ffff60a01b19909216919091179055565b60065460005b81811015610caf57610c9f816108dd565b610ca88161251c565b9050610c8e565b5050565b610cbb611619565b6001600160a01b0316610ccc610db9565b6001600160a01b031614610cf25760405162461bcd60e51b815260040161046990612304565b600080546040516001600160a01b03909116907f8be0079c531659141344cd1fd0a4f28419497f9722a3daafe3b4186f6b6457e0908390a3600080546001600160a01b0319169055565b60055481565b6004546001600160a01b03163314610d6c5760405162461bcd60e51b8152600401610469906123d3565b6001600160a01b038116610d925760405162461bcd60e51b815260040161046990612215565b600480546001600160a01b0319166001600160a01b0392909216919091179055565b600181565b6000546001600160a01b031690565b6000610dd960016109fb848661161d565b9392505050565b60026001541415610e035760405162461bcd60e51b81526004016104699061240a565b6002600181905550600060068481548110610e2e57634e487b7160e01b600052603260045260246000fd5b60009182526020808320878452600782526040808520338652909252922060069091029091019150610e5f856108dd565b600084118015610e795750600b546001600160a01b031615155b8015610e8d57506001600160a01b03831615155b8015610ea257506001600160a01b0383163314155b15610f0c57600b54604051630c7f7b6b60e01b81526001600160a01b0390911690630c7f7b6b90610ed99033908790600401611fa2565b600060405180830381600087803b158015610ef357600080fd5b505af1158015610f07573d6000803e3d6000fd5b505050505b610f1585611635565b8315611071578154610f32906001600160a01b0316333087611844565b60025482546001600160a01b0390811691161415610ff6576000610fe661271061080a600260009054906101000a90046001600160a01b03166001600160a01b031663b65d08b06040518163ffffffff1660e01b815260040160206040518083038186803b158015610fa357600080fd5b505afa158015610fb7573d6000803e3d6000fd5b505050506040513d601f19601f82011682018060405250810190610fdb9190611e10565b889061ffff1661182c565b9050610ff2858261161d565b9450505b600482015461ffff1615611062576004820154600090611023906127109061080a90889061ffff1661182c565b6004548454919250611042916001600160a01b039081169116836117d1565b815461105a9082906110549088611629565b9061161d565b825550611071565b805461106e9085611629565b81555b6003820154815461108c9164e8d4a510009161080a9161182c565b6001820155604051859033907f90890809c654f11d6e72a28fa60149770a0d11ec6c92319d6ceb2bb0a4ea1a15906110c5908890612450565b60405180910390a3505060018055505050565b600b546001600160a01b031681565b600760209081526000928352604080842090915290825290208054600182015460028301546003909301549192909184565b611121611619565b6001600160a01b0316611132610db9565b6001600160a01b0316146111585760405162461bcd60e51b815260040161046990612304565b6127108361ffff16111561117e5760405162461bcd60e51b81526004016104699061206e565b621275008211156111a15760405162461bcd60e51b815260040161046990612242565b80156111af576111af610c88565b600060095443116111c2576009546111c4565b435b6008549091506111d49087611629565b6008556040805160c0810182526001600160a01b0396871681526020810197885290810191825260006060820181815261ffff9687166080840190815260a08401968752600680546001810182559381905293517ff652222313e28459528d920b65115c16c04f3efc82aaedc97be59f3f377c0d3f9390940292830180546001600160a01b031916949099169390931790975596517ff652222313e28459528d920b65115c16c04f3efc82aaedc97be59f3f377c0d4088015590517ff652222313e28459528d920b65115c16c04f3efc82aaedc97be59f3f377c0d4187015593517ff652222313e28459528d920b65115c16c04f3efc82aaedc97be59f3f377c0d428601555091517ff652222313e28459528d920b65115c16c04f3efc82aaedc97be59f3f377c0d438401805461ffff191691909216179055517ff652222313e28459528d920b65115c16c04f3efc82aaedc97be59f3f377c0d4490910155565b6000806006848154811061135957634e487b7160e01b600052603260045260246000fd5b600091825260208083208784526007825260408085206001600160a01b03808a16875293528085206003600690950290920193840154845491516370a0823160e01b815294965091949193919216906370a08231906113bc903090600401611f8e565b60206040518083038186803b1580156113d457600080fd5b505afa1580156113e8573d6000803e3d6000fd5b505050506040513d601f19601f8201168201806040525081019061140c9190611e44565b905083600201544311801561142057508015155b15611480576000611435856002015443610dc8565b9050600061145c60085461080a88600101546109fb6005548761182c90919063ffffffff16565b905061147b6114748461080a8464e8d4a5100061182c565b8590611629565b935050505b60006114aa846001015461105464e8d4a5100061080a87896000015461182c90919063ffffffff16565b90506114c384600201548261162990919063ffffffff16565b98975050505050505050565b6003546001600160a01b031633146114f95760405162461bcd60e51b815260040161046990612121565b6001600160a01b03811661151f5760405162461bcd60e51b8152600401610469906121e8565b600380546001600160a01b0319166001600160a01b0392909216919091179055565b600b54600160a01b900461ffff1681565b6212750081565b611561611619565b6001600160a01b0316611572610db9565b6001600160a01b0316146115985760405162461bcd60e51b815260040161046990612304565b6001600160a01b0381166115be5760405162461bcd60e51b8152600401610469906121a2565b600080546040516001600160a01b03808516939216917f8be0079c531659141344cd1fd0a4f28419497f9722a3daafe3b4186f6b6457e091a3600080546001600160a01b0319166001600160a01b0392909216919091179055565b3390565b6000610dd982846124d9565b6000610dd98284612482565b60006006828154811061165857634e487b7160e01b600052603260045260246000fd5b60009182526020808320858452600782526040808520338652909252922060038101546006909202909201925061169f576005820154611699904290611629565b60038201555b60006116cd826001015461105464e8d4a5100061080a8760030154876000015461182c90919063ffffffff16565b90506116d984336106d0565b156117645760008111806116f1575060008260020154115b1561175f57600061170f83600201548361162990919063ffffffff16565b905061172a8360020154600a5461161d90919063ffffffff16565b600a55600060028401556005840154611744904290611629565b60038401556117533382611865565b61175d33826119fe565b505b6117cb565b80156117cb5760028201546117799082611629565b6002830155600a5461178b9082611629565b600a55604051849033907fee470483107f579a55c754fa00613c45a9a3b617a418b39cb0be97e5381ba7c1906117c2908590612450565b60405180910390a35b50505050565b6118278363a9059cbb60e01b84846040516024016117f0929190611fe0565b60408051601f198184030181529190526020810180516001600160e01b03166001600160e01b031990931692909217909152611bfb565b505050565b6000610dd982846124ba565b6000610dd9828461249a565b6117cb846323b872dd60e01b8585856040516024016117f093929190611fbc565b6002546040516370a0823160e01b81526000916001600160a01b0316906370a0823190611896903090600401611f8e565b60206040518083038186803b1580156118ae57600080fd5b505afa1580156118c2573d6000803e3d6000fd5b505050506040513d601f19601f820116820180604052508101906118e69190611e44565b90508082111561197a5760025460405163a9059cbb60e01b81526001600160a01b039091169063a9059cbb906119229086908590600401611fe0565b602060405180830381600087803b15801561193c57600080fd5b505af1158015611950573d6000803e3d6000fd5b505050506040513d601f19601f820116820180604052508101906119749190611dd8565b50611827565b60025460405163a9059cbb60e01b81526001600160a01b039091169063a9059cbb906119ac9086908690600401611fe0565b602060405180830381600087803b1580156119c657600080fd5b505af11580156119da573d6000803e3d6000fd5b505050506040513d601f19601f820116820180604052508101906117cb9190611dd8565b600b546001600160a01b031615801590611a245750600b54600160a01b900461ffff1615155b15610caf57600b54604051634a9fefc760e01b81526000916001600160a01b031690634a9fefc790611a5a908690600401611f8e565b60206040518083038186803b158015611a7257600080fd5b505afa158015611a86573d6000803e3d6000fd5b505050506040513d601f19601f82011682018060405250810190611aaa9190611dbc565b600b54909150600090611ad1906127109061080a908690600160a01b900461ffff1661182c565b90506001600160a01b03821615801590611aeb5750600081115b156117cb576002546040516340c10f1960e01b81526001600160a01b03909116906340c10f1990611b229085908590600401611fe0565b600060405180830381600087803b158015611b3c57600080fd5b505af1158015611b50573d6000803e3d6000fd5b5050600b54604051631b82d29760e31b81526001600160a01b03909116925063dc1694b89150611b869085908590600401611fe0565b600060405180830381600087803b158015611ba057600080fd5b505af1158015611bb4573d6000803e3d6000fd5b50505050816001600160a01b0316846001600160a01b03167f86ddab457291316e0f5496737e5ca67c4037234c32c3be04c48ae96186893a7b836040516117c29190612450565b6000611c50826040518060400160405280602081526020017f5361666542455032303a206c6f772d6c6576656c2063616c6c206661696c6564815250856001600160a01b0316611c8a9092919063ffffffff16565b8051909150156118275780806020019051810190611c6e9190611dd8565b6118275760405162461bcd60e51b815260040161046990612158565b6060611c998484600085611ca1565b949350505050565b606082471015611cc35760405162461bcd60e51b815260040161046990612279565b611ccc85611d61565b611ce85760405162461bcd60e51b815260040161046990612370565b600080866001600160a01b03168587604051611d049190611f72565b60006040518083038185875af1925050503d8060008114611d41576040519150601f19603f3d011682016040523d82523d6000602084013e611d46565b606091505b5091509150611d56828286611d67565b979650505050505050565b3b151590565b60608315611d76575081610dd9565b825115611d865782518084602001fd5b8160405162461bcd60e51b8152600401610469919061203b565b600060208284031215611db1578081fd5b8135610dd98161254d565b600060208284031215611dcd578081fd5b8151610dd98161254d565b600060208284031215611de9578081fd5b8151610dd981612562565b600060208284031215611e05578081fd5b8135610dd981612570565b600060208284031215611e21578081fd5b8151610dd981612570565b600060208284031215611e3d578081fd5b5035919050565b600060208284031215611e55578081fd5b5051919050565b60008060408385031215611e6e578081fd5b823591506020830135611e808161254d565b809150509250929050565b600080600080600060a08688031215611ea2578081fd5b853594506020860135611eb48161254d565b93506040860135611ec481612570565b9250606086013591506080860135611edb81612562565b809150509295509295909350565b60008060408385031215611efb578182fd5b50508035926020909101359150565b600080600060608486031215611f1e578283fd5b83359250602084013591506040840135611f378161254d565b809150509250925092565b600080600080600060a08688031215611f59578081fd5b85359450602086013593506040860135611ec481612570565b60008251611f848184602087016124f0565b9190910192915050565b6001600160a01b0391909116815260200190565b6001600160a01b0392831681529116602082015260400190565b6001600160a01b039384168152919092166020820152604081019190915260600190565b6001600160a01b03929092168252602082015260400190565b901515815260200190565b6001600160a01b0396909616865260208601949094526040850192909252606084015261ffff16608083015260a082015260c00190565b600060208252825180602084015261205a8160408501602087016124f0565b601f01601f19169190910160400192915050565b60208082526025908201527f6164643a20696e76616c6964206465706f7369742066656520626173697320706040820152646f696e747360d81b606082015260800190565b60208082526048908201527f736574526566657272616c436f6d6d697373696f6e526174653a20696e76616c60408201527f696420726566657272616c20636f6d6d697373696f6e207261746520626173696060820152677320706f696e747360c01b608082015260a00190565b60208082526018908201527f736574446576416464726573733a20464f5242494444454e0000000000000000604082015260600190565b6020808252602a908201527f5361666542455032303a204245503230206f7065726174696f6e20646964206e6040820152691bdd081cdd58d8d9595960b21b606082015260800190565b60208082526026908201527f4f776e61626c653a206e6577206f776e657220697320746865207a65726f206160408201526564647265737360d01b606082015260800190565b602080825260139082015272736574446576416464726573733a205a45524f60681b604082015260600190565b602080825260139082015272736574466565416464726573733a205a45524f60681b604082015260600190565b6020808252601d908201527f6164643a20696e76616c6964206861727665737420696e74657276616c000000604082015260600190565b60208082526026908201527f416464726573733a20696e73756666696369656e742062616c616e636520666f6040820152651c8818d85b1b60d21b606082015260800190565b60208082526025908201527f7365743a20696e76616c6964206465706f7369742066656520626173697320706040820152646f696e747360d81b606082015260800190565b6020808252818101527f4f776e61626c653a2063616c6c6572206973206e6f7420746865206f776e6572604082015260600190565b6020808252601d908201527f7365743a20696e76616c6964206861727665737420696e74657276616c000000604082015260600190565b6020808252601d908201527f416464726573733a2063616c6c20746f206e6f6e2d636f6e7472616374000000604082015260600190565b6020808252601290820152711dda5d1a191c985dce881b9bdd0819dbdbd960721b604082015260600190565b60208082526018908201527f736574466565416464726573733a20464f5242494444454e0000000000000000604082015260600190565b6020808252601f908201527f5265656e7472616e637947756172643a207265656e7472616e742063616c6c00604082015260600190565b61ffff91909116815260200190565b90815260200190565b918252602082015260400190565b93845260208401929092526040830152606082015260800190565b6000821982111561249557612495612537565b500190565b6000826124b557634e487b7160e01b81526012600452602481fd5b500490565b60008160001904831182151516156124d4576124d4612537565b500290565b6000828210156124eb576124eb612537565b500390565b60005b8381101561250b5781810151838201526020016124f3565b838111156117cb5750506000910152565b600060001982141561253057612530612537565b5060010190565b634e487b7160e01b600052601160045260246000fd5b6001600160a01b0381168114610b1857600080fd5b8015158114610b1857600080fd5b61ffff81168114610b1857600080fdfea2646970667358221220adea02860661477defb7f9ba7cf3767625f31b8357887a328c9016d298fabbb864736f6c63430008000033",
			"opcodes": "PUSH1 0x80 PUSH1 0x40 MSTORE PUSH1 0x0 PUSH1 0x8 SSTORE PUSH1 0xB DUP1 SLOAD PUSH2 0xFFFF PUSH1 0xA0 SHL NOT AND PUSH1 0x19 PUSH1 0xA2 SHL OR SWAP1 SSTORE CALLVALUE DUP1 ISZERO PUSH3 0x2A JUMPI PUSH1 0x0 DUP1 REVERT JUMPDEST POP PUSH1 0x40 MLOAD PUSH3 0x26F8 CODESIZE SUB DUP1 PUSH3 0x26F8 DUP4 CODECOPY DUP2 ADD PUSH1 0x40 DUP2 SWAP1 MSTORE PUSH3 0x4D SWAP2 PUSH3 0xEF JUMP JUMPDEST PUSH1 0x0 PUSH3 0x59 PUSH3 0xEB JUMP JUMPDEST PUSH1 0x0 DUP1 SLOAD PUSH1 0x1 PUSH1 0x1 PUSH1 0xA0 SHL SUB NOT AND PUSH1 0x1 PUSH1 0x1 PUSH1 0xA0 SHL SUB DUP4 AND SWAP1 DUP2 OR DUP3 SSTORE PUSH1 0x40 MLOAD SWAP3 SWAP4 POP SWAP2 PUSH32 0x8BE0079C531659141344CD1FD0A4F28419497F9722A3DAAFE3B4186F6B6457E0 SWAP1 DUP3 SWAP1 LOG3 POP PUSH1 0x1 DUP1 SSTORE PUSH1 0x2 DUP1 SLOAD PUSH1 0x1 PUSH1 0x1 PUSH1 0xA0 SHL SUB SWAP1 SWAP5 AND PUSH1 0x1 PUSH1 0x1 PUSH1 0xA0 SHL SUB NOT SWAP5 DUP6 AND OR SWAP1 SSTORE PUSH1 0x9 SWAP2 SWAP1 SWAP2 SSTORE PUSH1 0x5 SSTORE PUSH1 0x3 DUP1 SLOAD DUP3 AND CALLER SWAP1 DUP2 OR SWAP1 SWAP2 SSTORE PUSH1 0x4 DUP1 SLOAD SWAP1 SWAP3 AND OR SWAP1 SSTORE PUSH3 0x132 JUMP JUMPDEST CALLER SWAP1 JUMP JUMPDEST PUSH1 0x0 DUP1 PUSH1 0x0 PUSH1 0x60 DUP5 DUP7 SUB SLT ISZERO PUSH3 0x104 JUMPI DUP3 DUP4 REVERT JUMPDEST DUP4 MLOAD PUSH1 0x1 PUSH1 0x1 PUSH1 0xA0 SHL SUB DUP2 AND DUP2 EQ PUSH3 0x11B JUMPI DUP4 DUP5 REVERT JUMPDEST PUSH1 0x20 DUP6 ADD MLOAD PUSH1 0x40 SWAP1 SWAP6 ADD MLOAD SWAP1 SWAP7 SWAP5 SWAP6 POP SWAP4 SWAP3 POP POP POP JUMP JUMPDEST PUSH2 0x25B6 DUP1 PUSH3 0x142 PUSH1 0x0 CODECOPY PUSH1 0x0 RETURN INVALID PUSH1 0x80 PUSH1 0x40 MSTORE CALLVALUE DUP1 ISZERO PUSH2 0x10 JUMPI PUSH1 0x0 DUP1 REVERT JUMPDEST POP PUSH1 0x4 CALLDATASIZE LT PUSH2 0x1FB JUMPI PUSH1 0x0 CALLDATALOAD PUSH1 0xE0 SHR DUP1 PUSH4 0x55DBC826 GT PUSH2 0x11A JUMPI DUP1 PUSH4 0x8DBDBE6D GT PUSH2 0xAD JUMPI DUP1 PUSH4 0xCDF93057 GT PUSH2 0x7C JUMPI DUP1 PUSH4 0xCDF93057 EQ PUSH2 0x3DB JUMPI DUP1 PUSH4 0xD0D41FE1 EQ PUSH2 0x3EE JUMPI DUP1 PUSH4 0xD30EF61B EQ PUSH2 0x401 JUMPI DUP1 PUSH4 0xDE73149D EQ PUSH2 0x409 JUMPI DUP1 PUSH4 0xF2FDE38B EQ PUSH2 0x411 JUMPI PUSH2 0x1FB JUMP JUMPDEST DUP1 PUSH4 0x8DBDBE6D EQ PUSH2 0x38A JUMPI DUP1 PUSH4 0x8FAF3A58 EQ PUSH2 0x39D JUMPI DUP1 PUSH4 0x93F1A40B EQ PUSH2 0x3A5 JUMPI DUP1 PUSH4 0xAF018DE8 EQ PUSH2 0x3C8 JUMPI PUSH2 0x1FB JUMP JUMPDEST DUP1 PUSH4 0x8705FCD4 GT PUSH2 0xE9 JUMPI DUP1 PUSH4 0x8705FCD4 EQ PUSH2 0x354 JUMPI DUP1 PUSH4 0x8AA28550 EQ PUSH2 0x367 JUMPI DUP1 PUSH4 0x8DA5CB5B EQ PUSH2 0x36F JUMPI DUP1 PUSH4 0x8DBB1E3A EQ PUSH2 0x377 JUMPI PUSH2 0x1FB JUMP JUMPDEST DUP1 PUSH4 0x55DBC826 EQ PUSH2 0x329 JUMPI DUP1 PUSH4 0x630B5BA1 EQ PUSH2 0x33C JUMPI DUP1 PUSH4 0x715018A6 EQ PUSH2 0x344 JUMPI DUP1 PUSH4 0x84403589 EQ PUSH2 0x34C JUMPI PUSH2 0x1FB JUMP JUMPDEST DUP1 PUSH4 0x441A3E70 GT PUSH2 0x192 JUMPI DUP1 PUSH4 0x48CD4CB1 GT PUSH2 0x161 JUMPI DUP1 PUSH4 0x48CD4CB1 EQ PUSH2 0x2E8 JUMPI DUP1 PUSH4 0x4D6251B2 EQ PUSH2 0x2F0 JUMPI DUP1 PUSH4 0x51EB05A6 EQ PUSH2 0x303 JUMPI DUP1 PUSH4 0x5312EA8E EQ PUSH2 0x316 JUMPI PUSH2 0x1FB JUMP JUMPDEST DUP1 PUSH4 0x441A3E70 EQ PUSH2 0x2B0 JUMPI DUP1 PUSH4 0x46111E7A EQ PUSH2 0x2C3 JUMPI DUP1 PUSH4 0x474FA630 EQ PUSH2 0x2CB JUMPI DUP1 PUSH4 0x48B22BFB EQ PUSH2 0x2D3 JUMPI PUSH2 0x1FB JUMP JUMPDEST DUP1 PUSH4 0x2143E545 GT PUSH2 0x1CE JUMPI DUP1 PUSH4 0x2143E545 EQ PUSH2 0x260 JUMPI DUP1 PUSH4 0x2E6C998D EQ PUSH2 0x273 JUMPI DUP1 PUSH4 0x3AD10EF6 EQ PUSH2 0x293 JUMPI DUP1 PUSH4 0x41275358 EQ PUSH2 0x2A8 JUMPI PUSH2 0x1FB JUMP JUMPDEST DUP1 PUSH4 0x81E3EDA EQ PUSH2 0x200 JUMPI DUP1 PUSH4 0xBA84CD2 EQ PUSH2 0x21E JUMPI DUP1 PUSH4 0x1526FE27 EQ PUSH2 0x233 JUMPI DUP1 PUSH4 0x17CAF6F1 EQ PUSH2 0x258 JUMPI JUMPDEST PUSH1 0x0 DUP1 REVERT JUMPDEST PUSH2 0x208 PUSH2 0x424 JUMP JUMPDEST PUSH1 0x40 MLOAD PUSH2 0x215 SWAP2 SWAP1 PUSH2 0x2450 JUMP JUMPDEST PUSH1 0x40 MLOAD DUP1 SWAP2 SUB SWAP1 RETURN JUMPDEST PUSH2 0x231 PUSH2 0x22C CALLDATASIZE PUSH1 0x4 PUSH2 0x1E2C JUMP JUMPDEST PUSH2 0x42A JUMP JUMPDEST STOP JUMPDEST PUSH2 0x246 PUSH2 0x241 CALLDATASIZE PUSH1 0x4 PUSH2 0x1E2C JUMP JUMPDEST PUSH2 0x4C4 JUMP JUMPDEST PUSH1 0x40 MLOAD PUSH2 0x215 SWAP7 SWAP6 SWAP5 SWAP4 SWAP3 SWAP2 SWAP1 PUSH2 0x2004 JUMP JUMPDEST PUSH2 0x208 PUSH2 0x51B JUMP JUMPDEST PUSH2 0x231 PUSH2 0x26E CALLDATASIZE PUSH1 0x4 PUSH2 0x1F42 JUMP JUMPDEST PUSH2 0x521 JUMP JUMPDEST PUSH2 0x286 PUSH2 0x281 CALLDATASIZE PUSH1 0x4 PUSH2 0x1E5C JUMP JUMPDEST PUSH2 0x6D0 JUMP JUMPDEST PUSH1 0x40 MLOAD PUSH2 0x215 SWAP2 SWAP1 PUSH2 0x1FF9 JUMP JUMPDEST PUSH2 0x29B PUSH2 0x6FE JUMP JUMPDEST PUSH1 0x40 MLOAD PUSH2 0x215 SWAP2 SWAP1 PUSH2 0x1F8E JUMP JUMPDEST PUSH2 0x29B PUSH2 0x70D JUMP JUMPDEST PUSH2 0x231 PUSH2 0x2BE CALLDATASIZE PUSH1 0x4 PUSH2 0x1EE9 JUMP JUMPDEST PUSH2 0x71C JUMP JUMPDEST PUSH2 0x29B PUSH2 0x85B JUMP JUMPDEST PUSH2 0x208 PUSH2 0x86A JUMP JUMPDEST PUSH2 0x2DB PUSH2 0x870 JUMP JUMPDEST PUSH1 0x40 MLOAD PUSH2 0x215 SWAP2 SWAP1 PUSH2 0x2441 JUMP JUMPDEST PUSH2 0x208 PUSH2 0x876 JUMP JUMPDEST PUSH2 0x231 PUSH2 0x2FE CALLDATASIZE PUSH1 0x4 PUSH2 0x1DA0 JUMP JUMPDEST PUSH2 0x87C JUMP JUMPDEST PUSH2 0x231 PUSH2 0x311 CALLDATASIZE PUSH1 0x4 PUSH2 0x1E2C JUMP JUMPDEST PUSH2 0x8DD JUMP JUMPDEST PUSH2 0x231 PUSH2 0x324 CALLDATASIZE PUSH1 0x4 PUSH2 0x1E2C JUMP JUMPDEST PUSH2 0xB1B JUMP JUMPDEST PUSH2 0x231 PUSH2 0x337 CALLDATASIZE PUSH1 0x4 PUSH2 0x1DF4 JUMP JUMPDEST PUSH2 0xC01 JUMP JUMPDEST PUSH2 0x231 PUSH2 0xC88 JUMP JUMPDEST PUSH2 0x231 PUSH2 0xCB3 JUMP JUMPDEST PUSH2 0x208 PUSH2 0xD3C JUMP JUMPDEST PUSH2 0x231 PUSH2 0x362 CALLDATASIZE PUSH1 0x4 PUSH2 0x1DA0 JUMP JUMPDEST PUSH2 0xD42 JUMP JUMPDEST PUSH2 0x208 PUSH2 0xDB4 JUMP JUMPDEST PUSH2 0x29B PUSH2 0xDB9 JUMP JUMPDEST PUSH2 0x208 PUSH2 0x385 CALLDATASIZE PUSH1 0x4 PUSH2 0x1EE9 JUMP JUMPDEST PUSH2 0xDC8 JUMP JUMPDEST PUSH2 0x231 PUSH2 0x398 CALLDATASIZE PUSH1 0x4 PUSH2 0x1F0A JUMP JUMPDEST PUSH2 0xDE0 JUMP JUMPDEST PUSH2 0x29B PUSH2 0x10D8 JUMP JUMPDEST PUSH2 0x3B8 PUSH2 0x3B3 CALLDATASIZE PUSH1 0x4 PUSH2 0x1E5C JUMP JUMPDEST PUSH2 0x10E7 JUMP JUMPDEST PUSH1 0x40 MLOAD PUSH2 0x215 SWAP5 SWAP4 SWAP3 SWAP2 SWAP1 PUSH2 0x2467 JUMP JUMPDEST PUSH2 0x231 PUSH2 0x3D6 CALLDATASIZE PUSH1 0x4 PUSH2 0x1E8B JUMP JUMPDEST PUSH2 0x1119 JUMP JUMPDEST PUSH2 0x208 PUSH2 0x3E9 CALLDATASIZE PUSH1 0x4 PUSH2 0x1E5C JUMP JUMPDEST PUSH2 0x1335 JUMP JUMPDEST PUSH2 0x231 PUSH2 0x3FC CALLDATASIZE PUSH1 0x4 PUSH2 0x1DA0 JUMP JUMPDEST PUSH2 0x14CF JUMP JUMPDEST PUSH2 0x2DB PUSH2 0x1541 JUMP JUMPDEST PUSH2 0x208 PUSH2 0x1552 JUMP JUMPDEST PUSH2 0x231 PUSH2 0x41F CALLDATASIZE PUSH1 0x4 PUSH2 0x1DA0 JUMP JUMPDEST PUSH2 0x1559 JUMP JUMPDEST PUSH1 0x6 SLOAD SWAP1 JUMP JUMPDEST PUSH2 0x432 PUSH2 0x1619 JUMP JUMPDEST PUSH1 0x1 PUSH1 0x1 PUSH1 0xA0 SHL SUB AND PUSH2 0x443 PUSH2 0xDB9 JUMP JUMPDEST PUSH1 0x1 PUSH1 0x1 PUSH1 0xA0 SHL SUB AND EQ PUSH2 0x472 JUMPI PUSH1 0x40 MLOAD PUSH3 0x461BCD PUSH1 0xE5 SHL DUP2 MSTORE PUSH1 0x4 ADD PUSH2 0x469 SWAP1 PUSH2 0x2304 JUMP JUMPDEST PUSH1 0x40 MLOAD DUP1 SWAP2 SUB SWAP1 REVERT JUMPDEST PUSH2 0x47A PUSH2 0xC88 JUMP JUMPDEST CALLER PUSH1 0x1 PUSH1 0x1 PUSH1 0xA0 SHL SUB AND PUSH32 0xEEDC6338C9C1AD8F3CD6C90DD09DBE98DBD57E610D3E59A17996D07ACB0D9511 PUSH1 0x5 SLOAD DUP4 PUSH1 0x40 MLOAD PUSH2 0x4B7 SWAP3 SWAP2 SWAP1 PUSH2 0x2459 JUMP JUMPDEST PUSH1 0x40 MLOAD DUP1 SWAP2 SUB SWAP1 LOG2 PUSH1 0x5 SSTORE JUMP JUMPDEST PUSH1 0x6 DUP2 DUP2 SLOAD DUP2 LT PUSH2 0x4D4 JUMPI PUSH1 0x0 DUP1 REVERT JUMPDEST PUSH1 0x0 SWAP2 DUP3 MSTORE PUSH1 0x20 SWAP1 SWAP2 KECCAK256 PUSH1 0x6 SWAP1 SWAP2 MUL ADD DUP1 SLOAD PUSH1 0x1 DUP3 ADD SLOAD PUSH1 0x2 DUP4 ADD SLOAD PUSH1 0x3 DUP5 ADD SLOAD PUSH1 0x4 DUP6 ADD SLOAD PUSH1 0x5 SWAP1 SWAP6 ADD SLOAD PUSH1 0x1 PUSH1 0x1 PUSH1 0xA0 SHL SUB SWAP1 SWAP5 AND SWAP6 POP SWAP2 SWAP4 SWAP1 SWAP3 PUSH2 0xFFFF SWAP1 SWAP2 AND SWAP1 DUP7 JUMP JUMPDEST PUSH1 0x8 SLOAD DUP2 JUMP JUMPDEST PUSH2 0x529 PUSH2 0x1619 JUMP JUMPDEST PUSH1 0x1 PUSH1 0x1 PUSH1 0xA0 SHL SUB AND PUSH2 0x53A PUSH2 0xDB9 JUMP JUMPDEST PUSH1 0x1 PUSH1 0x1 PUSH1 0xA0 SHL SUB AND EQ PUSH2 0x560 JUMPI PUSH1 0x40 MLOAD PUSH3 0x461BCD PUSH1 0xE5 SHL DUP2 MSTORE PUSH1 0x4 ADD PUSH2 0x469 SWAP1 PUSH2 0x2304 JUMP JUMPDEST PUSH2 0x2710 DUP4 PUSH2 0xFFFF AND GT ISZERO PUSH2 0x586 JUMPI PUSH1 0x40 MLOAD PUSH3 0x461BCD PUSH1 0xE5 SHL DUP2 MSTORE PUSH1 0x4 ADD PUSH2 0x469 SWAP1 PUSH2 0x22BF JUMP JUMPDEST PUSH3 0x127500 DUP3 GT ISZERO PUSH2 0x5A9 JUMPI PUSH1 0x40 MLOAD PUSH3 0x461BCD PUSH1 0xE5 SHL DUP2 MSTORE PUSH1 0x4 ADD PUSH2 0x469 SWAP1 PUSH2 0x2339 JUMP JUMPDEST DUP1 ISZERO PUSH2 0x5B7 JUMPI PUSH2 0x5B7 PUSH2 0xC88 JUMP JUMPDEST PUSH2 0x608 DUP5 PUSH2 0x602 PUSH1 0x6 DUP9 DUP2 SLOAD DUP2 LT PUSH2 0x5DF JUMPI PUSH4 0x4E487B71 PUSH1 0xE0 SHL PUSH1 0x0 MSTORE PUSH1 0x32 PUSH1 0x4 MSTORE PUSH1 0x24 PUSH1 0x0 REVERT JUMPDEST SWAP1 PUSH1 0x0 MSTORE PUSH1 0x20 PUSH1 0x0 KECCAK256 SWAP1 PUSH1 0x6 MUL ADD PUSH1 0x1 ADD SLOAD PUSH1 0x8 SLOAD PUSH2 0x161D SWAP1 SWAP2 SWAP1 PUSH4 0xFFFFFFFF AND JUMP JUMPDEST SWAP1 PUSH2 0x1629 JUMP JUMPDEST PUSH1 0x8 DUP2 SWAP1 SSTORE POP DUP4 PUSH1 0x6 DUP7 DUP2 SLOAD DUP2 LT PUSH2 0x630 JUMPI PUSH4 0x4E487B71 PUSH1 0xE0 SHL PUSH1 0x0 MSTORE PUSH1 0x32 PUSH1 0x4 MSTORE PUSH1 0x24 PUSH1 0x0 REVERT JUMPDEST SWAP1 PUSH1 0x0 MSTORE PUSH1 0x20 PUSH1 0x0 KECCAK256 SWAP1 PUSH1 0x6 MUL ADD PUSH1 0x1 ADD DUP2 SWAP1 SSTORE POP DUP3 PUSH1 0x6 DUP7 DUP2 SLOAD DUP2 LT PUSH2 0x667 JUMPI PUSH4 0x4E487B71 PUSH1 0xE0 SHL PUSH1 0x0 MSTORE PUSH1 0x32 PUSH1 0x4 MSTORE PUSH1 0x24 PUSH1 0x0 REVERT JUMPDEST SWAP1 PUSH1 0x0 MSTORE PUSH1 0x20 PUSH1 0x0 KECCAK256 SWAP1 PUSH1 0x6 MUL ADD PUSH1 0x4 ADD PUSH1 0x0 PUSH2 0x100 EXP DUP2 SLOAD DUP2 PUSH2 0xFFFF MUL NOT AND SWAP1 DUP4 PUSH2 0xFFFF AND MUL OR SWAP1 SSTORE POP DUP2 PUSH1 0x6 DUP7 DUP2 SLOAD DUP2 LT PUSH2 0x6B4 JUMPI PUSH4 0x4E487B71 PUSH1 0xE0 SHL PUSH1 0x0 MSTORE PUSH1 0x32 PUSH1 0x4 MSTORE PUSH1 0x24 PUSH1 0x0 REVERT JUMPDEST SWAP1 PUSH1 0x0 MSTORE PUSH1 0x20 PUSH1 0x0 KECCAK256 SWAP1 PUSH1 0x6 MUL ADD PUSH1 0x5 ADD DUP2 SWAP1 SSTORE POP POP POP POP POP POP JUMP JUMPDEST PUSH1 0x0 SWAP2 DUP3 MSTORE PUSH1 0x7 PUSH1 0x20 SWAP1 DUP2 MSTORE PUSH1 0x40 DUP1 DUP5 KECCAK256 PUSH1 0x1 PUSH1 0x1 PUSH1 0xA0 SHL SUB SWAP4 SWAP1 SWAP4 AND DUP5 MSTORE SWAP2 SWAP1 MSTORE SWAP1 KECCAK256 PUSH1 0x3 ADD SLOAD TIMESTAMP LT ISZERO SWAP1 JUMP JUMPDEST PUSH1 0x3 SLOAD PUSH1 0x1 PUSH1 0x1 PUSH1 0xA0 SHL SUB AND DUP2 JUMP JUMPDEST PUSH1 0x4 SLOAD PUSH1 0x1 PUSH1 0x1 PUSH1 0xA0 SHL SUB AND DUP2 JUMP JUMPDEST PUSH1 0x2 PUSH1 0x1 SLOAD EQ ISZERO PUSH2 0x73F JUMPI PUSH1 0x40 MLOAD PUSH3 0x461BCD PUSH1 0xE5 SHL DUP2 MSTORE PUSH1 0x4 ADD PUSH2 0x469 SWAP1 PUSH2 0x240A JUMP JUMPDEST PUSH1 0x2 PUSH1 0x1 DUP2 SWAP1 SSTORE POP PUSH1 0x0 PUSH1 0x6 DUP4 DUP2 SLOAD DUP2 LT PUSH2 0x76A JUMPI PUSH4 0x4E487B71 PUSH1 0xE0 SHL PUSH1 0x0 MSTORE PUSH1 0x32 PUSH1 0x4 MSTORE PUSH1 0x24 PUSH1 0x0 REVERT JUMPDEST PUSH1 0x0 SWAP2 DUP3 MSTORE PUSH1 0x20 DUP1 DUP4 KECCAK256 DUP7 DUP5 MSTORE PUSH1 0x7 DUP3 MSTORE PUSH1 0x40 DUP1 DUP6 KECCAK256 CALLER DUP7 MSTORE SWAP1 SWAP3 MSTORE SWAP3 KECCAK256 DUP1 SLOAD PUSH1 0x6 SWAP1 SWAP3 MUL SWAP1 SWAP3 ADD SWAP3 POP DUP4 GT ISZERO PUSH2 0x7B3 JUMPI PUSH1 0x40 MLOAD PUSH3 0x461BCD PUSH1 0xE5 SHL DUP2 MSTORE PUSH1 0x4 ADD PUSH2 0x469 SWAP1 PUSH2 0x23A7 JUMP JUMPDEST PUSH2 0x7BC DUP5 PUSH2 0x8DD JUMP JUMPDEST PUSH2 0x7C5 DUP5 PUSH2 0x1635 JUMP JUMPDEST DUP3 ISZERO PUSH2 0x7EF JUMPI DUP1 SLOAD PUSH2 0x7D7 SWAP1 DUP5 PUSH2 0x161D JUMP JUMPDEST DUP2 SSTORE DUP2 SLOAD PUSH2 0x7EF SWAP1 PUSH1 0x1 PUSH1 0x1 PUSH1 0xA0 SHL SUB AND CALLER DUP6 PUSH2 0x17D1 JUMP JUMPDEST PUSH1 0x3 DUP3 ADD SLOAD DUP2 SLOAD PUSH2 0x810 SWAP2 PUSH5 0xE8D4A51000 SWAP2 PUSH2 0x80A SWAP2 PUSH2 0x182C JUMP JUMPDEST SWAP1 PUSH2 0x1838 JUMP JUMPDEST PUSH1 0x1 DUP3 ADD SSTORE PUSH1 0x40 MLOAD DUP5 SWAP1 CALLER SWAP1 PUSH32 0xF279E6A1F5E320CCA91135676D9CB6E44CA8A08C0B88342BCDB1144F6511B568 SWAP1 PUSH2 0x849 SWAP1 DUP8 SWAP1 PUSH2 0x2450 JUMP JUMPDEST PUSH1 0x40 MLOAD DUP1 SWAP2 SUB SWAP1 LOG3 POP POP PUSH1 0x1 DUP1 SSTORE POP POP JUMP JUMPDEST PUSH1 0x2 SLOAD PUSH1 0x1 PUSH1 0x1 PUSH1 0xA0 SHL SUB AND DUP2 JUMP JUMPDEST PUSH1 0xA SLOAD DUP2 JUMP JUMPDEST PUSH2 0x3E8 DUP2 JUMP JUMPDEST PUSH1 0x9 SLOAD DUP2 JUMP JUMPDEST PUSH2 0x884 PUSH2 0x1619 JUMP JUMPDEST PUSH1 0x1 PUSH1 0x1 PUSH1 0xA0 SHL SUB AND PUSH2 0x895 PUSH2 0xDB9 JUMP JUMPDEST PUSH1 0x1 PUSH1 0x1 PUSH1 0xA0 SHL SUB AND EQ PUSH2 0x8BB JUMPI PUSH1 0x40 MLOAD PUSH3 0x461BCD PUSH1 0xE5 SHL DUP2 MSTORE PUSH1 0x4 ADD PUSH2 0x469 SWAP1 PUSH2 0x2304 JUMP JUMPDEST PUSH1 0xB DUP1 SLOAD PUSH1 0x1 PUSH1 0x1 PUSH1 0xA0 SHL SUB NOT AND PUSH1 0x1 PUSH1 0x1 PUSH1 0xA0 SHL SUB SWAP3 SWAP1 SWAP3 AND SWAP2 SWAP1 SWAP2 OR SWAP1 SSTORE JUMP JUMPDEST PUSH1 0x0 PUSH1 0x6 DUP3 DUP2 SLOAD DUP2 LT PUSH2 0x900 JUMPI PUSH4 0x4E487B71 PUSH1 0xE0 SHL PUSH1 0x0 MSTORE PUSH1 0x32 PUSH1 0x4 MSTORE PUSH1 0x24 PUSH1 0x0 REVERT JUMPDEST SWAP1 PUSH1 0x0 MSTORE PUSH1 0x20 PUSH1 0x0 KECCAK256 SWAP1 PUSH1 0x6 MUL ADD SWAP1 POP DUP1 PUSH1 0x2 ADD SLOAD NUMBER GT PUSH2 0x921 JUMPI POP PUSH2 0xB18 JUMP JUMPDEST DUP1 SLOAD PUSH1 0x40 MLOAD PUSH4 0x70A08231 PUSH1 0xE0 SHL DUP2 MSTORE PUSH1 0x0 SWAP2 PUSH1 0x1 PUSH1 0x1 PUSH1 0xA0 SHL SUB AND SWAP1 PUSH4 0x70A08231 SWAP1 PUSH2 0x951 SWAP1 ADDRESS SWAP1 PUSH1 0x4 ADD PUSH2 0x1F8E JUMP JUMPDEST PUSH1 0x20 PUSH1 0x40 MLOAD DUP1 DUP4 SUB DUP2 DUP7 DUP1 EXTCODESIZE ISZERO DUP1 ISZERO PUSH2 0x969 JUMPI PUSH1 0x0 DUP1 REVERT JUMPDEST POP GAS STATICCALL ISZERO DUP1 ISZERO PUSH2 0x97D JUMPI RETURNDATASIZE PUSH1 0x0 DUP1 RETURNDATACOPY RETURNDATASIZE PUSH1 0x0 REVERT JUMPDEST POP POP POP POP PUSH1 0x40 MLOAD RETURNDATASIZE PUSH1 0x1F NOT PUSH1 0x1F DUP3 ADD AND DUP3 ADD DUP1 PUSH1 0x40 MSTORE POP DUP2 ADD SWAP1 PUSH2 0x9A1 SWAP2 SWAP1 PUSH2 0x1E44 JUMP JUMPDEST SWAP1 POP DUP1 ISZERO DUP1 PUSH2 0x9B2 JUMPI POP PUSH1 0x1 DUP3 ADD SLOAD ISZERO JUMPDEST ISZERO PUSH2 0x9C4 JUMPI POP NUMBER PUSH1 0x2 SWAP1 SWAP2 ADD SSTORE PUSH2 0xB18 JUMP JUMPDEST PUSH1 0x0 PUSH2 0x9D4 DUP4 PUSH1 0x2 ADD SLOAD NUMBER PUSH2 0xDC8 JUMP JUMPDEST SWAP1 POP PUSH1 0x0 PUSH2 0xA01 PUSH1 0x8 SLOAD PUSH2 0x80A DUP7 PUSH1 0x1 ADD SLOAD PUSH2 0x9FB PUSH1 0x5 SLOAD DUP8 PUSH2 0x182C SWAP1 SWAP2 SWAP1 PUSH4 0xFFFFFFFF AND JUMP JUMPDEST SWAP1 PUSH2 0x182C JUMP JUMPDEST PUSH1 0x2 SLOAD PUSH1 0x3 SLOAD SWAP2 SWAP3 POP PUSH1 0x1 PUSH1 0x1 PUSH1 0xA0 SHL SUB SWAP1 DUP2 AND SWAP2 PUSH4 0x40C10F19 SWAP2 AND PUSH2 0xA28 DUP5 PUSH1 0xA PUSH2 0x1838 JUMP JUMPDEST PUSH1 0x40 MLOAD DUP4 PUSH4 0xFFFFFFFF AND PUSH1 0xE0 SHL DUP2 MSTORE PUSH1 0x4 ADD PUSH2 0xA45 SWAP3 SWAP2 SWAP1 PUSH2 0x1FE0 JUMP JUMPDEST PUSH1 0x0 PUSH1 0x40 MLOAD DUP1 DUP4 SUB DUP2 PUSH1 0x0 DUP8 DUP1 EXTCODESIZE ISZERO DUP1 ISZERO PUSH2 0xA5F JUMPI PUSH1 0x0 DUP1 REVERT JUMPDEST POP GAS CALL ISZERO DUP1 ISZERO PUSH2 0xA73 JUMPI RETURNDATASIZE PUSH1 0x0 DUP1 RETURNDATACOPY RETURNDATASIZE PUSH1 0x0 REVERT JUMPDEST POP POP PUSH1 0x2 SLOAD PUSH1 0x40 MLOAD PUSH4 0x40C10F19 PUSH1 0xE0 SHL DUP2 MSTORE PUSH1 0x1 PUSH1 0x1 PUSH1 0xA0 SHL SUB SWAP1 SWAP2 AND SWAP3 POP PUSH4 0x40C10F19 SWAP2 POP PUSH2 0xAA9 SWAP1 ADDRESS SWAP1 DUP6 SWAP1 PUSH1 0x4 ADD PUSH2 0x1FE0 JUMP JUMPDEST PUSH1 0x0 PUSH1 0x40 MLOAD DUP1 DUP4 SUB DUP2 PUSH1 0x0 DUP8 DUP1 EXTCODESIZE ISZERO DUP1 ISZERO PUSH2 0xAC3 JUMPI PUSH1 0x0 DUP1 REVERT JUMPDEST POP GAS CALL ISZERO DUP1 ISZERO PUSH2 0xAD7 JUMPI RETURNDATASIZE PUSH1 0x0 DUP1 RETURNDATACOPY RETURNDATASIZE PUSH1 0x0 REVERT JUMPDEST POP POP POP POP PUSH2 0xB05 PUSH2 0xAFA DUP5 PUSH2 0x80A PUSH5 0xE8D4A51000 DUP6 PUSH2 0x182C SWAP1 SWAP2 SWAP1 PUSH4 0xFFFFFFFF AND JUMP JUMPDEST PUSH1 0x3 DUP7 ADD SLOAD SWAP1 PUSH2 0x1629 JUMP JUMPDEST PUSH1 0x3 DUP6 ADD SSTORE POP POP NUMBER PUSH1 0x2 SWAP1 SWAP3 ADD SWAP2 SWAP1 SWAP2 SSTORE POP JUMPDEST POP JUMP JUMPDEST PUSH1 0x2 PUSH1 0x1 SLOAD EQ ISZERO PUSH2 0xB3E JUMPI PUSH1 0x40 MLOAD PUSH3 0x461BCD PUSH1 0xE5 SHL DUP2 MSTORE PUSH1 0x4 ADD PUSH2 0x469 SWAP1 PUSH2 0x240A JUMP JUMPDEST PUSH1 0x2 PUSH1 0x1 DUP2 SWAP1 SSTORE POP PUSH1 0x0 PUSH1 0x6 DUP3 DUP2 SLOAD DUP2 LT PUSH2 0xB69 JUMPI PUSH4 0x4E487B71 PUSH1 0xE0 SHL PUSH1 0x0 MSTORE PUSH1 0x32 PUSH1 0x4 MSTORE PUSH1 0x24 PUSH1 0x0 REVERT JUMPDEST PUSH1 0x0 SWAP2 DUP3 MSTORE PUSH1 0x20 DUP1 DUP4 KECCAK256 DUP6 DUP5 MSTORE PUSH1 0x7 DUP3 MSTORE PUSH1 0x40 DUP1 DUP6 KECCAK256 CALLER DUP1 DUP8 MSTORE SWAP4 MSTORE DUP5 KECCAK256 DUP1 SLOAD DUP6 DUP3 SSTORE PUSH1 0x1 DUP3 ADD DUP7 SWAP1 SSTORE PUSH1 0x2 DUP3 ADD DUP7 SWAP1 SSTORE PUSH1 0x3 DUP3 ADD SWAP6 SWAP1 SWAP6 SSTORE PUSH1 0x6 SWAP1 SWAP4 MUL ADD DUP1 SLOAD SWAP1 SWAP5 POP SWAP2 SWAP3 SWAP2 PUSH2 0xBC7 SWAP2 PUSH1 0x1 PUSH1 0x1 PUSH1 0xA0 SHL SUB SWAP2 SWAP1 SWAP2 AND SWAP1 DUP4 PUSH2 0x17D1 JUMP JUMPDEST DUP4 CALLER PUSH1 0x1 PUSH1 0x1 PUSH1 0xA0 SHL SUB AND PUSH32 0xBB757047C2B5F3974FE26B7C10F732E7BCE710B0952A71082702781E62AE0595 DUP4 PUSH1 0x40 MLOAD PUSH2 0x849 SWAP2 SWAP1 PUSH2 0x2450 JUMP JUMPDEST PUSH2 0xC09 PUSH2 0x1619 JUMP JUMPDEST PUSH1 0x1 PUSH1 0x1 PUSH1 0xA0 SHL SUB AND PUSH2 0xC1A PUSH2 0xDB9 JUMP JUMPDEST PUSH1 0x1 PUSH1 0x1 PUSH1 0xA0 SHL SUB AND EQ PUSH2 0xC40 JUMPI PUSH1 0x40 MLOAD PUSH3 0x461BCD PUSH1 0xE5 SHL DUP2 MSTORE PUSH1 0x4 ADD PUSH2 0x469 SWAP1 PUSH2 0x2304 JUMP JUMPDEST PUSH2 0x3E8 PUSH2 0xFFFF DUP3 AND GT ISZERO PUSH2 0xC66 JUMPI PUSH1 0x40 MLOAD PUSH3 0x461BCD PUSH1 0xE5 SHL DUP2 MSTORE PUSH1 0x4 ADD PUSH2 0x469 SWAP1 PUSH2 0x20B3 JUMP JUMPDEST PUSH1 0xB DUP1 SLOAD PUSH2 0xFFFF SWAP1 SWAP3 AND PUSH1 0x1 PUSH1 0xA0 SHL MUL PUSH2 0xFFFF PUSH1 0xA0 SHL NOT SWAP1 SWAP3 AND SWAP2 SWAP1 SWAP2 OR SWAP1 SSTORE JUMP JUMPDEST PUSH1 0x6 SLOAD PUSH1 0x0 JUMPDEST DUP2 DUP2 LT ISZERO PUSH2 0xCAF JUMPI PUSH2 0xC9F DUP2 PUSH2 0x8DD JUMP JUMPDEST PUSH2 0xCA8 DUP2 PUSH2 0x251C JUMP JUMPDEST SWAP1 POP PUSH2 0xC8E JUMP JUMPDEST POP POP JUMP JUMPDEST PUSH2 0xCBB PUSH2 0x1619 JUMP JUMPDEST PUSH1 0x1 PUSH1 0x1 PUSH1 0xA0 SHL SUB AND PUSH2 0xCCC PUSH2 0xDB9 JUMP JUMPDEST PUSH1 0x1 PUSH1 0x1 PUSH1 0xA0 SHL SUB AND EQ PUSH2 0xCF2 JUMPI PUSH1 0x40 MLOAD PUSH3 0x461BCD PUSH1 0xE5 SHL DUP2 MSTORE PUSH1 0x4 ADD PUSH2 0x469 SWAP1 PUSH2 0x2304 JUMP JUMPDEST PUSH1 0x0 DUP1 SLOAD PUSH1 0x40 MLOAD PUSH1 0x1 PUSH1 0x1 PUSH1 0xA0 SHL SUB SWAP1 SWAP2 AND SWAP1 PUSH32 0x8BE0079C531659141344CD1FD0A4F28419497F9722A3DAAFE3B4186F6B6457E0 SWAP1 DUP4 SWAP1 LOG3 PUSH1 0x0 DUP1 SLOAD PUSH1 0x1 PUSH1 0x1 PUSH1 0xA0 SHL SUB NOT AND SWAP1 SSTORE JUMP JUMPDEST PUSH1 0x5 SLOAD DUP2 JUMP JUMPDEST PUSH1 0x4 SLOAD PUSH1 0x1 PUSH1 0x1 PUSH1 0xA0 SHL SUB AND CALLER EQ PUSH2 0xD6C JUMPI PUSH1 0x40 MLOAD PUSH3 0x461BCD PUSH1 0xE5 SHL DUP2 MSTORE PUSH1 0x4 ADD PUSH2 0x469 SWAP1 PUSH2 0x23D3 JUMP JUMPDEST PUSH1 0x1 PUSH1 0x1 PUSH1 0xA0 SHL SUB DUP2 AND PUSH2 0xD92 JUMPI PUSH1 0x40 MLOAD PUSH3 0x461BCD PUSH1 0xE5 SHL DUP2 MSTORE PUSH1 0x4 ADD PUSH2 0x469 SWAP1 PUSH2 0x2215 JUMP JUMPDEST PUSH1 0x4 DUP1 SLOAD PUSH1 0x1 PUSH1 0x1 PUSH1 0xA0 SHL SUB NOT AND PUSH1 0x1 PUSH1 0x1 PUSH1 0xA0 SHL SUB SWAP3 SWAP1 SWAP3 AND SWAP2 SWAP1 SWAP2 OR SWAP1 SSTORE JUMP JUMPDEST PUSH1 0x1 DUP2 JUMP JUMPDEST PUSH1 0x0 SLOAD PUSH1 0x1 PUSH1 0x1 PUSH1 0xA0 SHL SUB AND SWAP1 JUMP JUMPDEST PUSH1 0x0 PUSH2 0xDD9 PUSH1 0x1 PUSH2 0x9FB DUP5 DUP7 PUSH2 0x161D JUMP JUMPDEST SWAP4 SWAP3 POP POP POP JUMP JUMPDEST PUSH1 0x2 PUSH1 0x1 SLOAD EQ ISZERO PUSH2 0xE03 JUMPI PUSH1 0x40 MLOAD PUSH3 0x461BCD PUSH1 0xE5 SHL DUP2 MSTORE PUSH1 0x4 ADD PUSH2 0x469 SWAP1 PUSH2 0x240A JUMP JUMPDEST PUSH1 0x2 PUSH1 0x1 DUP2 SWAP1 SSTORE POP PUSH1 0x0 PUSH1 0x6 DUP5 DUP2 SLOAD DUP2 LT PUSH2 0xE2E JUMPI PUSH4 0x4E487B71 PUSH1 0xE0 SHL PUSH1 0x0 MSTORE PUSH1 0x32 PUSH1 0x4 MSTORE PUSH1 0x24 PUSH1 0x0 REVERT JUMPDEST PUSH1 0x0 SWAP2 DUP3 MSTORE PUSH1 0x20 DUP1 DUP4 KECCAK256 DUP8 DUP5 MSTORE PUSH1 0x7 DUP3 MSTORE PUSH1 0x40 DUP1 DUP6 KECCAK256 CALLER DUP7 MSTORE SWAP1 SWAP3 MSTORE SWAP3 KECCAK256 PUSH1 0x6 SWAP1 SWAP2 MUL SWAP1 SWAP2 ADD SWAP2 POP PUSH2 0xE5F DUP6 PUSH2 0x8DD JUMP JUMPDEST PUSH1 0x0 DUP5 GT DUP1 ISZERO PUSH2 0xE79 JUMPI POP PUSH1 0xB SLOAD PUSH1 0x1 PUSH1 0x1 PUSH1 0xA0 SHL SUB AND ISZERO ISZERO JUMPDEST DUP1 ISZERO PUSH2 0xE8D JUMPI POP PUSH1 0x1 PUSH1 0x1 PUSH1 0xA0 SHL SUB DUP4 AND ISZERO ISZERO JUMPDEST DUP1 ISZERO PUSH2 0xEA2 JUMPI POP PUSH1 0x1 PUSH1 0x1 PUSH1 0xA0 SHL SUB DUP4 AND CALLER EQ ISZERO JUMPDEST ISZERO PUSH2 0xF0C JUMPI PUSH1 0xB SLOAD PUSH1 0x40 MLOAD PUSH4 0xC7F7B6B PUSH1 0xE0 SHL DUP2 MSTORE PUSH1 0x1 PUSH1 0x1 PUSH1 0xA0 SHL SUB SWAP1 SWAP2 AND SWAP1 PUSH4 0xC7F7B6B SWAP1 PUSH2 0xED9 SWAP1 CALLER SWAP1 DUP8 SWAP1 PUSH1 0x4 ADD PUSH2 0x1FA2 JUMP JUMPDEST PUSH1 0x0 PUSH1 0x40 MLOAD DUP1 DUP4 SUB DUP2 PUSH1 0x0 DUP8 DUP1 EXTCODESIZE ISZERO DUP1 ISZERO PUSH2 0xEF3 JUMPI PUSH1 0x0 DUP1 REVERT JUMPDEST POP GAS CALL ISZERO DUP1 ISZERO PUSH2 0xF07 JUMPI RETURNDATASIZE PUSH1 0x0 DUP1 RETURNDATACOPY RETURNDATASIZE PUSH1 0x0 REVERT JUMPDEST POP POP POP POP JUMPDEST PUSH2 0xF15 DUP6 PUSH2 0x1635 JUMP JUMPDEST DUP4 ISZERO PUSH2 0x1071 JUMPI DUP2 SLOAD PUSH2 0xF32 SWAP1 PUSH1 0x1 PUSH1 0x1 PUSH1 0xA0 SHL SUB AND CALLER ADDRESS DUP8 PUSH2 0x1844 JUMP JUMPDEST PUSH1 0x2 SLOAD DUP3 SLOAD PUSH1 0x1 PUSH1 0x1 PUSH1 0xA0 SHL SUB SWAP1 DUP2 AND SWAP2 AND EQ ISZERO PUSH2 0xFF6 JUMPI PUSH1 0x0 PUSH2 0xFE6 PUSH2 0x2710 PUSH2 0x80A PUSH1 0x2 PUSH1 0x0 SWAP1 SLOAD SWAP1 PUSH2 0x100 EXP SWAP1 DIV PUSH1 0x1 PUSH1 0x1 PUSH1 0xA0 SHL SUB AND PUSH1 0x1 PUSH1 0x1 PUSH1 0xA0 SHL SUB AND PUSH4 0xB65D08B0 PUSH1 0x40 MLOAD DUP2 PUSH4 0xFFFFFFFF AND PUSH1 0xE0 SHL DUP2 MSTORE PUSH1 0x4 ADD PUSH1 0x20 PUSH1 0x40 MLOAD DUP1 DUP4 SUB DUP2 DUP7 DUP1 EXTCODESIZE ISZERO DUP1 ISZERO PUSH2 0xFA3 JUMPI PUSH1 0x0 DUP1 REVERT JUMPDEST POP GAS STATICCALL ISZERO DUP1 ISZERO PUSH2 0xFB7 JUMPI RETURNDATASIZE PUSH1 0x0 DUP1 RETURNDATACOPY RETURNDATASIZE PUSH1 0x0 REVERT JUMPDEST POP POP POP POP PUSH1 0x40 MLOAD RETURNDATASIZE PUSH1 0x1F NOT PUSH1 0x1F DUP3 ADD AND DUP3 ADD DUP1 PUSH1 0x40 MSTORE POP DUP2 ADD SWAP1 PUSH2 0xFDB SWAP2 SWAP1 PUSH2 0x1E10 JUMP JUMPDEST DUP9 SWAP1 PUSH2 0xFFFF AND PUSH2 0x182C JUMP JUMPDEST SWAP1 POP PUSH2 0xFF2 DUP6 DUP3 PUSH2 0x161D JUMP JUMPDEST SWAP5 POP POP JUMPDEST PUSH1 0x4 DUP3 ADD SLOAD PUSH2 0xFFFF AND ISZERO PUSH2 0x1062 JUMPI PUSH1 0x4 DUP3 ADD SLOAD PUSH1 0x0 SWAP1 PUSH2 0x1023 SWAP1 PUSH2 0x2710 SWAP1 PUSH2 0x80A SWAP1 DUP9 SWAP1 PUSH2 0xFFFF AND PUSH2 0x182C JUMP JUMPDEST PUSH1 0x4 SLOAD DUP5 SLOAD SWAP2 SWAP3 POP PUSH2 0x1042 SWAP2 PUSH1 0x1 PUSH1 0x1 PUSH1 0xA0 SHL SUB SWAP1 DUP2 AND SWAP2 AND DUP4 PUSH2 0x17D1 JUMP JUMPDEST DUP2 SLOAD PUSH2 0x105A SWAP1 DUP3 SWAP1 PUSH2 0x1054 SWAP1 DUP9 PUSH2 0x1629 JUMP JUMPDEST SWAP1 PUSH2 0x161D JUMP JUMPDEST DUP3 SSTORE POP PUSH2 0x1071 JUMP JUMPDEST DUP1 SLOAD PUSH2 0x106E SWAP1 DUP6 PUSH2 0x1629 JUMP JUMPDEST DUP2 SSTORE JUMPDEST PUSH1 0x3 DUP3 ADD SLOAD DUP2 SLOAD PUSH2 0x108C SWAP2 PUSH5 0xE8D4A51000 SWAP2 PUSH2 0x80A SWAP2 PUSH2 0x182C JUMP JUMPDEST PUSH1 0x1 DUP3 ADD SSTORE PUSH1 0x40 MLOAD DUP6 SWAP1 CALLER SWAP1 PUSH32 0x90890809C654F11D6E72A28FA60149770A0D11EC6C92319D6CEB2BB0A4EA1A15 SWAP1 PUSH2 0x10C5 SWAP1 DUP9 SWAP1 PUSH2 0x2450 JUMP JUMPDEST PUSH1 0x40 MLOAD DUP1 SWAP2 SUB SWAP1 LOG3 POP POP PUSH1 0x1 DUP1 SSTORE POP POP POP JUMP JUMPDEST PUSH1 0xB SLOAD PUSH1 0x1 PUSH1 0x1 PUSH1 0xA0 SHL SUB AND DUP2 JUMP JUMPDEST PUSH1 0x7 PUSH1 0x20 SWAP1 DUP2 MSTORE PUSH1 0x0 SWAP3 DUP4 MSTORE PUSH1 0x40 DUP1 DUP5 KECCAK256 SWAP1 SWAP2 MSTORE SWAP1 DUP3 MSTORE SWAP1 KECCAK256 DUP1 SLOAD PUSH1 0x1 DUP3 ADD SLOAD PUSH1 0x2 DUP4 ADD SLOAD PUSH1 0x3 SWAP1 SWAP4 ADD SLOAD SWAP2 SWAP3 SWAP1 SWAP2 DUP5 JUMP JUMPDEST PUSH2 0x1121 PUSH2 0x1619 JUMP JUMPDEST PUSH1 0x1 PUSH1 0x1 PUSH1 0xA0 SHL SUB AND PUSH2 0x1132 PUSH2 0xDB9 JUMP JUMPDEST PUSH1 0x1 PUSH1 0x1 PUSH1 0xA0 SHL SUB AND EQ PUSH2 0x1158 JUMPI PUSH1 0x40 MLOAD PUSH3 0x461BCD PUSH1 0xE5 SHL DUP2 MSTORE PUSH1 0x4 ADD PUSH2 0x469 SWAP1 PUSH2 0x2304 JUMP JUMPDEST PUSH2 0x2710 DUP4 PUSH2 0xFFFF AND GT ISZERO PUSH2 0x117E JUMPI PUSH1 0x40 MLOAD PUSH3 0x461BCD PUSH1 0xE5 SHL DUP2 MSTORE PUSH1 0x4 ADD PUSH2 0x469 SWAP1 PUSH2 0x206E JUMP JUMPDEST PUSH3 0x127500 DUP3 GT ISZERO PUSH2 0x11A1 JUMPI PUSH1 0x40 MLOAD PUSH3 0x461BCD PUSH1 0xE5 SHL DUP2 MSTORE PUSH1 0x4 ADD PUSH2 0x469 SWAP1 PUSH2 0x2242 JUMP JUMPDEST DUP1 ISZERO PUSH2 0x11AF JUMPI PUSH2 0x11AF PUSH2 0xC88 JUMP JUMPDEST PUSH1 0x0 PUSH1 0x9 SLOAD NUMBER GT PUSH2 0x11C2 JUMPI PUSH1 0x9 SLOAD PUSH2 0x11C4 JUMP JUMPDEST NUMBER JUMPDEST PUSH1 0x8 SLOAD SWAP1 SWAP2 POP PUSH2 0x11D4 SWAP1 DUP8 PUSH2 0x1629 JUMP JUMPDEST PUSH1 0x8 SSTORE PUSH1 0x40 DUP1 MLOAD PUSH1 0xC0 DUP2 ADD DUP3 MSTORE PUSH1 0x1 PUSH1 0x1 PUSH1 0xA0 SHL SUB SWAP7 DUP8 AND DUP2 MSTORE PUSH1 0x20 DUP2 ADD SWAP8 DUP9 MSTORE SWAP1 DUP2 ADD SWAP2 DUP3 MSTORE PUSH1 0x0 PUSH1 0x60 DUP3 ADD DUP2 DUP2 MSTORE PUSH2 0xFFFF SWAP7 DUP8 AND PUSH1 0x80 DUP5 ADD SWAP1 DUP2 MSTORE PUSH1 0xA0 DUP5 ADD SWAP7 DUP8 MSTORE PUSH1 0x6 DUP1 SLOAD PUSH1 0x1 DUP2 ADD DUP3 SSTORE SWAP4 DUP2 SWAP1 MSTORE SWAP4 MLOAD PUSH32 0xF652222313E28459528D920B65115C16C04F3EFC82AAEDC97BE59F3F377C0D3F SWAP4 SWAP1 SWAP5 MUL SWAP3 DUP4 ADD DUP1 SLOAD PUSH1 0x1 PUSH1 0x1 PUSH1 0xA0 SHL SUB NOT AND SWAP5 SWAP1 SWAP10 AND SWAP4 SWAP1 SWAP4 OR SWAP1 SWAP8 SSTORE SWAP7 MLOAD PUSH32 0xF652222313E28459528D920B65115C16C04F3EFC82AAEDC97BE59F3F377C0D40 DUP9 ADD SSTORE SWAP1 MLOAD PUSH32 0xF652222313E28459528D920B65115C16C04F3EFC82AAEDC97BE59F3F377C0D41 DUP8 ADD SSTORE SWAP4 MLOAD PUSH32 0xF652222313E28459528D920B65115C16C04F3EFC82AAEDC97BE59F3F377C0D42 DUP7 ADD SSTORE POP SWAP2 MLOAD PUSH32 0xF652222313E28459528D920B65115C16C04F3EFC82AAEDC97BE59F3F377C0D43 DUP5 ADD DUP1 SLOAD PUSH2 0xFFFF NOT AND SWAP2 SWAP1 SWAP3 AND OR SWAP1 SSTORE MLOAD PUSH32 0xF652222313E28459528D920B65115C16C04F3EFC82AAEDC97BE59F3F377C0D44 SWAP1 SWAP2 ADD SSTORE JUMP JUMPDEST PUSH1 0x0 DUP1 PUSH1 0x6 DUP5 DUP2 SLOAD DUP2 LT PUSH2 0x1359 JUMPI PUSH4 0x4E487B71 PUSH1 0xE0 SHL PUSH1 0x0 MSTORE PUSH1 0x32 PUSH1 0x4 MSTORE PUSH1 0x24 PUSH1 0x0 REVERT JUMPDEST PUSH1 0x0 SWAP2 DUP3 MSTORE PUSH1 0x20 DUP1 DUP4 KECCAK256 DUP8 DUP5 MSTORE PUSH1 0x7 DUP3 MSTORE PUSH1 0x40 DUP1 DUP6 KECCAK256 PUSH1 0x1 PUSH1 0x1 PUSH1 0xA0 SHL SUB DUP1 DUP11 AND DUP8 MSTORE SWAP4 MSTORE DUP1 DUP6 KECCAK256 PUSH1 0x3 PUSH1 0x6 SWAP1 SWAP6 MUL SWAP1 SWAP3 ADD SWAP4 DUP5 ADD SLOAD DUP5 SLOAD SWAP2 MLOAD PUSH4 0x70A08231 PUSH1 0xE0 SHL DUP2 MSTORE SWAP5 SWAP7 POP SWAP2 SWAP5 SWAP2 SWAP4 SWAP2 SWAP3 AND SWAP1 PUSH4 0x70A08231 SWAP1 PUSH2 0x13BC SWAP1 ADDRESS SWAP1 PUSH1 0x4 ADD PUSH2 0x1F8E JUMP JUMPDEST PUSH1 0x20 PUSH1 0x40 MLOAD DUP1 DUP4 SUB DUP2 DUP7 DUP1 EXTCODESIZE ISZERO DUP1 ISZERO PUSH2 0x13D4 JUMPI PUSH1 0x0 DUP1 REVERT JUMPDEST POP GAS STATICCALL ISZERO DUP1 ISZERO PUSH2 0x13E8 JUMPI RETURNDATASIZE PUSH1 0x0 DUP1 RETURNDATACOPY RETURNDATASIZE PUSH1 0x0 REVERT JUMPDEST POP POP POP POP PUSH1 0x40 MLOAD RETURNDATASIZE PUSH1 0x1F NOT PUSH1 0x1F DUP3 ADD AND DUP3 ADD DUP1 PUSH1 0x40 MSTORE POP DUP2 ADD SWAP1 PUSH2 0x140C SWAP2 SWAP1 PUSH2 0x1E44 JUMP JUMPDEST SWAP1 POP DUP4 PUSH1 0x2 ADD SLOAD NUMBER GT DUP1 ISZERO PUSH2 0x1420 JUMPI POP DUP1 ISZERO ISZERO JUMPDEST ISZERO PUSH2 0x1480 JUMPI PUSH1 0x0 PUSH2 0x1435 DUP6 PUSH1 0x2 ADD SLOAD NUMBER PUSH2 0xDC8 JUMP JUMPDEST SWAP1 POP PUSH1 0x0 PUSH2 0x145C PUSH1 0x8 SLOAD PUSH2 0x80A DUP9 PUSH1 0x1 ADD SLOAD PUSH2 0x9FB PUSH1 0x5 SLOAD DUP8 PUSH2 0x182C SWAP1 SWAP2 SWAP1 PUSH4 0xFFFFFFFF AND JUMP JUMPDEST SWAP1 POP PUSH2 0x147B PUSH2 0x1474 DUP5 PUSH2 0x80A DUP5 PUSH5 0xE8D4A51000 PUSH2 0x182C JUMP JUMPDEST DUP6 SWAP1 PUSH2 0x1629 JUMP JUMPDEST SWAP4 POP POP POP JUMPDEST PUSH1 0x0 PUSH2 0x14AA DUP5 PUSH1 0x1 ADD SLOAD PUSH2 0x1054 PUSH5 0xE8D4A51000 PUSH2 0x80A DUP8 DUP10 PUSH1 0x0 ADD SLOAD PUSH2 0x182C SWAP1 SWAP2 SWAP1 PUSH4 0xFFFFFFFF AND JUMP JUMPDEST SWAP1 POP PUSH2 0x14C3 DUP5 PUSH1 0x2 ADD SLOAD DUP3 PUSH2 0x1629 SWAP1 SWAP2 SWAP1 PUSH4 0xFFFFFFFF AND JUMP JUMPDEST SWAP9 SWAP8 POP POP POP POP POP POP POP POP JUMP JUMPDEST PUSH1 0x3 SLOAD PUSH1 0x1 PUSH1 0x1 PUSH1 0xA0 SHL SUB AND CALLER EQ PUSH2 0x14F9 JUMPI PUSH1 0x40 MLOAD PUSH3 0x461BCD PUSH1 0xE5 SHL DUP2 MSTORE PUSH1 0x4 ADD PUSH2 0x469 SWAP1 PUSH2 0x2121 JUMP JUMPDEST PUSH1 0x1 PUSH1 0x1 PUSH1 0xA0 SHL SUB DUP2 AND PUSH2 0x151F JUMPI PUSH1 0x40 MLOAD PUSH3 0x461BCD PUSH1 0xE5 SHL DUP2 MSTORE PUSH1 0x4 ADD PUSH2 0x469 SWAP1 PUSH2 0x21E8 JUMP JUMPDEST PUSH1 0x3 DUP1 SLOAD PUSH1 0x1 PUSH1 0x1 PUSH1 0xA0 SHL SUB NOT AND PUSH1 0x1 PUSH1 0x1 PUSH1 0xA0 SHL SUB SWAP3 SWAP1 SWAP3 AND SWAP2 SWAP1 SWAP2 OR SWAP1 SSTORE JUMP JUMPDEST PUSH1 0xB SLOAD PUSH1 0x1 PUSH1 0xA0 SHL SWAP1 DIV PUSH2 0xFFFF AND DUP2 JUMP JUMPDEST PUSH3 0x127500 DUP2 JUMP JUMPDEST PUSH2 0x1561 PUSH2 0x1619 JUMP JUMPDEST PUSH1 0x1 PUSH1 0x1 PUSH1 0xA0 SHL SUB AND PUSH2 0x1572 PUSH2 0xDB9 JUMP JUMPDEST PUSH1 0x1 PUSH1 0x1 PUSH1 0xA0 SHL SUB AND EQ PUSH2 0x1598 JUMPI PUSH1 0x40 MLOAD PUSH3 0x461BCD PUSH1 0xE5 SHL DUP2 MSTORE PUSH1 0x4 ADD PUSH2 0x469 SWAP1 PUSH2 0x2304 JUMP JUMPDEST PUSH1 0x1 PUSH1 0x1 PUSH1 0xA0 SHL SUB DUP2 AND PUSH2 0x15BE JUMPI PUSH1 0x40 MLOAD PUSH3 0x461BCD PUSH1 0xE5 SHL DUP2 MSTORE PUSH1 0x4 ADD PUSH2 0x469 SWAP1 PUSH2 0x21A2 JUMP JUMPDEST PUSH1 0x0 DUP1 SLOAD PUSH1 0x40 MLOAD PUSH1 0x1 PUSH1 0x1 PUSH1 0xA0 SHL SUB DUP1 DUP6 AND SWAP4 SWAP3 AND SWAP2 PUSH32 0x8BE0079C531659141344CD1FD0A4F28419497F9722A3DAAFE3B4186F6B6457E0 SWAP2 LOG3 PUSH1 0x0 DUP1 SLOAD PUSH1 0x1 PUSH1 0x1 PUSH1 0xA0 SHL SUB NOT AND PUSH1 0x1 PUSH1 0x1 PUSH1 0xA0 SHL SUB SWAP3 SWAP1 SWAP3 AND SWAP2 SWAP1 SWAP2 OR SWAP1 SSTORE JUMP JUMPDEST CALLER SWAP1 JUMP JUMPDEST PUSH1 0x0 PUSH2 0xDD9 DUP3 DUP5 PUSH2 0x24D9 JUMP JUMPDEST PUSH1 0x0 PUSH2 0xDD9 DUP3 DUP5 PUSH2 0x2482 JUMP JUMPDEST PUSH1 0x0 PUSH1 0x6 DUP3 DUP2 SLOAD DUP2 LT PUSH2 0x1658 JUMPI PUSH4 0x4E487B71 PUSH1 0xE0 SHL PUSH1 0x0 MSTORE PUSH1 0x32 PUSH1 0x4 MSTORE PUSH1 0x24 PUSH1 0x0 REVERT JUMPDEST PUSH1 0x0 SWAP2 DUP3 MSTORE PUSH1 0x20 DUP1 DUP4 KECCAK256 DUP6 DUP5 MSTORE PUSH1 0x7 DUP3 MSTORE PUSH1 0x40 DUP1 DUP6 KECCAK256 CALLER DUP7 MSTORE SWAP1 SWAP3 MSTORE SWAP3 KECCAK256 PUSH1 0x3 DUP2 ADD SLOAD PUSH1 0x6 SWAP1 SWAP3 MUL SWAP1 SWAP3 ADD SWAP3 POP PUSH2 0x169F JUMPI PUSH1 0x5 DUP3 ADD SLOAD PUSH2 0x1699 SWAP1 TIMESTAMP SWAP1 PUSH2 0x1629 JUMP JUMPDEST PUSH1 0x3 DUP3 ADD SSTORE JUMPDEST PUSH1 0x0 PUSH2 0x16CD DUP3 PUSH1 0x1 ADD SLOAD PUSH2 0x1054 PUSH5 0xE8D4A51000 PUSH2 0x80A DUP8 PUSH1 0x3 ADD SLOAD DUP8 PUSH1 0x0 ADD SLOAD PUSH2 0x182C SWAP1 SWAP2 SWAP1 PUSH4 0xFFFFFFFF AND JUMP JUMPDEST SWAP1 POP PUSH2 0x16D9 DUP5 CALLER PUSH2 0x6D0 JUMP JUMPDEST ISZERO PUSH2 0x1764 JUMPI PUSH1 0x0 DUP2 GT DUP1 PUSH2 0x16F1 JUMPI POP PUSH1 0x0 DUP3 PUSH1 0x2 ADD SLOAD GT JUMPDEST ISZERO PUSH2 0x175F JUMPI PUSH1 0x0 PUSH2 0x170F DUP4 PUSH1 0x2 ADD SLOAD DUP4 PUSH2 0x1629 SWAP1 SWAP2 SWAP1 PUSH4 0xFFFFFFFF AND JUMP JUMPDEST SWAP1 POP PUSH2 0x172A DUP4 PUSH1 0x2 ADD SLOAD PUSH1 0xA SLOAD PUSH2 0x161D SWAP1 SWAP2 SWAP1 PUSH4 0xFFFFFFFF AND JUMP JUMPDEST PUSH1 0xA SSTORE PUSH1 0x0 PUSH1 0x2 DUP5 ADD SSTORE PUSH1 0x5 DUP5 ADD SLOAD PUSH2 0x1744 SWAP1 TIMESTAMP SWAP1 PUSH2 0x1629 JUMP JUMPDEST PUSH1 0x3 DUP5 ADD SSTORE PUSH2 0x1753 CALLER DUP3 PUSH2 0x1865 JUMP JUMPDEST PUSH2 0x175D CALLER DUP3 PUSH2 0x19FE JUMP JUMPDEST POP JUMPDEST PUSH2 0x17CB JUMP JUMPDEST DUP1 ISZERO PUSH2 0x17CB JUMPI PUSH1 0x2 DUP3 ADD SLOAD PUSH2 0x1779 SWAP1 DUP3 PUSH2 0x1629 JUMP JUMPDEST PUSH1 0x2 DUP4 ADD SSTORE PUSH1 0xA SLOAD PUSH2 0x178B SWAP1 DUP3 PUSH2 0x1629 JUMP JUMPDEST PUSH1 0xA SSTORE PUSH1 0x40 MLOAD DUP5 SWAP1 CALLER SWAP1 PUSH32 0xEE470483107F579A55C754FA00613C45A9A3B617A418B39CB0BE97E5381BA7C1 SWAP1 PUSH2 0x17C2 SWAP1 DUP6 SWAP1 PUSH2 0x2450 JUMP JUMPDEST PUSH1 0x40 MLOAD DUP1 SWAP2 SUB SWAP1 LOG3 JUMPDEST POP POP POP POP JUMP JUMPDEST PUSH2 0x1827 DUP4 PUSH4 0xA9059CBB PUSH1 0xE0 SHL DUP5 DUP5 PUSH1 0x40 MLOAD PUSH1 0x24 ADD PUSH2 0x17F0 SWAP3 SWAP2 SWAP1 PUSH2 0x1FE0 JUMP JUMPDEST PUSH1 0x40 DUP1 MLOAD PUSH1 0x1F NOT DUP2 DUP5 SUB ADD DUP2 MSTORE SWAP2 SWAP1 MSTORE PUSH1 0x20 DUP2 ADD DUP1 MLOAD PUSH1 0x1 PUSH1 0x1 PUSH1 0xE0 SHL SUB AND PUSH1 0x1 PUSH1 0x1 PUSH1 0xE0 SHL SUB NOT SWAP1 SWAP4 AND SWAP3 SWAP1 SWAP3 OR SWAP1 SWAP2 MSTORE PUSH2 0x1BFB JUMP JUMPDEST POP POP POP JUMP JUMPDEST PUSH1 0x0 PUSH2 0xDD9 DUP3 DUP5 PUSH2 0x24BA JUMP JUMPDEST PUSH1 0x0 PUSH2 0xDD9 DUP3 DUP5 PUSH2 0x249A JUMP JUMPDEST PUSH2 0x17CB DUP5 PUSH4 0x23B872DD PUSH1 0xE0 SHL DUP6 DUP6 DUP6 PUSH1 0x40 MLOAD PUSH1 0x24 ADD PUSH2 0x17F0 SWAP4 SWAP3 SWAP2 SWAP1 PUSH2 0x1FBC JUMP JUMPDEST PUSH1 0x2 SLOAD PUSH1 0x40 MLOAD PUSH4 0x70A08231 PUSH1 0xE0 SHL DUP2 MSTORE PUSH1 0x0 SWAP2 PUSH1 0x1 PUSH1 0x1 PUSH1 0xA0 SHL SUB AND SWAP1 PUSH4 0x70A08231 SWAP1 PUSH2 0x1896 SWAP1 ADDRESS SWAP1 PUSH1 0x4 ADD PUSH2 0x1F8E JUMP JUMPDEST PUSH1 0x20 PUSH1 0x40 MLOAD DUP1 DUP4 SUB DUP2 DUP7 DUP1 EXTCODESIZE ISZERO DUP1 ISZERO PUSH2 0x18AE JUMPI PUSH1 0x0 DUP1 REVERT JUMPDEST POP GAS STATICCALL ISZERO DUP1 ISZERO PUSH2 0x18C2 JUMPI RETURNDATASIZE PUSH1 0x0 DUP1 RETURNDATACOPY RETURNDATASIZE PUSH1 0x0 REVERT JUMPDEST POP POP POP POP PUSH1 0x40 MLOAD RETURNDATASIZE PUSH1 0x1F NOT PUSH1 0x1F DUP3 ADD AND DUP3 ADD DUP1 PUSH1 0x40 MSTORE POP DUP2 ADD SWAP1 PUSH2 0x18E6 SWAP2 SWAP1 PUSH2 0x1E44 JUMP JUMPDEST SWAP1 POP DUP1 DUP3 GT ISZERO PUSH2 0x197A JUMPI PUSH1 0x2 SLOAD PUSH1 0x40 MLOAD PUSH4 0xA9059CBB PUSH1 0xE0 SHL DUP2 MSTORE PUSH1 0x1 PUSH1 0x1 PUSH1 0xA0 SHL SUB SWAP1 SWAP2 AND SWAP1 PUSH4 0xA9059CBB SWAP1 PUSH2 0x1922 SWAP1 DUP7 SWAP1 DUP6 SWAP1 PUSH1 0x4 ADD PUSH2 0x1FE0 JUMP JUMPDEST PUSH1 0x20 PUSH1 0x40 MLOAD DUP1 DUP4 SUB DUP2 PUSH1 0x0 DUP8 DUP1 EXTCODESIZE ISZERO DUP1 ISZERO PUSH2 0x193C JUMPI PUSH1 0x0 DUP1 REVERT JUMPDEST POP GAS CALL ISZERO DUP1 ISZERO PUSH2 0x1950 JUMPI RETURNDATASIZE PUSH1 0x0 DUP1 RETURNDATACOPY RETURNDATASIZE PUSH1 0x0 REVERT JUMPDEST POP POP POP POP PUSH1 0x40 MLOAD RETURNDATASIZE PUSH1 0x1F NOT PUSH1 0x1F DUP3 ADD AND DUP3 ADD DUP1 PUSH1 0x40 MSTORE POP DUP2 ADD SWAP1 PUSH2 0x1974 SWAP2 SWAP1 PUSH2 0x1DD8 JUMP JUMPDEST POP PUSH2 0x1827 JUMP JUMPDEST PUSH1 0x2 SLOAD PUSH1 0x40 MLOAD PUSH4 0xA9059CBB PUSH1 0xE0 SHL DUP2 MSTORE PUSH1 0x1 PUSH1 0x1 PUSH1 0xA0 SHL SUB SWAP1 SWAP2 AND SWAP1 PUSH4 0xA9059CBB SWAP1 PUSH2 0x19AC SWAP1 DUP7 SWAP1 DUP7 SWAP1 PUSH1 0x4 ADD PUSH2 0x1FE0 JUMP JUMPDEST PUSH1 0x20 PUSH1 0x40 MLOAD DUP1 DUP4 SUB DUP2 PUSH1 0x0 DUP8 DUP1 EXTCODESIZE ISZERO DUP1 ISZERO PUSH2 0x19C6 JUMPI PUSH1 0x0 DUP1 REVERT JUMPDEST POP GAS CALL ISZERO DUP1 ISZERO PUSH2 0x19DA JUMPI RETURNDATASIZE PUSH1 0x0 DUP1 RETURNDATACOPY RETURNDATASIZE PUSH1 0x0 REVERT JUMPDEST POP POP POP POP PUSH1 0x40 MLOAD RETURNDATASIZE PUSH1 0x1F NOT PUSH1 0x1F DUP3 ADD AND DUP3 ADD DUP1 PUSH1 0x40 MSTORE POP DUP2 ADD SWAP1 PUSH2 0x17CB SWAP2 SWAP1 PUSH2 0x1DD8 JUMP JUMPDEST PUSH1 0xB SLOAD PUSH1 0x1 PUSH1 0x1 PUSH1 0xA0 SHL SUB AND ISZERO DUP1 ISZERO SWAP1 PUSH2 0x1A24 JUMPI POP PUSH1 0xB SLOAD PUSH1 0x1 PUSH1 0xA0 SHL SWAP1 DIV PUSH2 0xFFFF AND ISZERO ISZERO JUMPDEST ISZERO PUSH2 0xCAF JUMPI PUSH1 0xB SLOAD PUSH1 0x40 MLOAD PUSH4 0x4A9FEFC7 PUSH1 0xE0 SHL DUP2 MSTORE PUSH1 0x0 SWAP2 PUSH1 0x1 PUSH1 0x1 PUSH1 0xA0 SHL SUB AND SWAP1 PUSH4 0x4A9FEFC7 SWAP1 PUSH2 0x1A5A SWAP1 DUP7 SWAP1 PUSH1 0x4 ADD PUSH2 0x1F8E JUMP JUMPDEST PUSH1 0x20 PUSH1 0x40 MLOAD DUP1 DUP4 SUB DUP2 DUP7 DUP1 EXTCODESIZE ISZERO DUP1 ISZERO PUSH2 0x1A72 JUMPI PUSH1 0x0 DUP1 REVERT JUMPDEST POP GAS STATICCALL ISZERO DUP1 ISZERO PUSH2 0x1A86 JUMPI RETURNDATASIZE PUSH1 0x0 DUP1 RETURNDATACOPY RETURNDATASIZE PUSH1 0x0 REVERT JUMPDEST POP POP POP POP PUSH1 0x40 MLOAD RETURNDATASIZE PUSH1 0x1F NOT PUSH1 0x1F DUP3 ADD AND DUP3 ADD DUP1 PUSH1 0x40 MSTORE POP DUP2 ADD SWAP1 PUSH2 0x1AAA SWAP2 SWAP1 PUSH2 0x1DBC JUMP JUMPDEST PUSH1 0xB SLOAD SWAP1 SWAP2 POP PUSH1 0x0 SWAP1 PUSH2 0x1AD1 SWAP1 PUSH2 0x2710 SWAP1 PUSH2 0x80A SWAP1 DUP7 SWAP1 PUSH1 0x1 PUSH1 0xA0 SHL SWAP1 DIV PUSH2 0xFFFF AND PUSH2 0x182C JUMP JUMPDEST SWAP1 POP PUSH1 0x1 PUSH1 0x1 PUSH1 0xA0 SHL SUB DUP3 AND ISZERO DUP1 ISZERO SWAP1 PUSH2 0x1AEB JUMPI POP PUSH1 0x0 DUP2 GT JUMPDEST ISZERO PUSH2 0x17CB JUMPI PUSH1 0x2 SLOAD PUSH1 0x40 MLOAD PUSH4 0x40C10F19 PUSH1 0xE0 SHL DUP2 MSTORE PUSH1 0x1 PUSH1 0x1 PUSH1 0xA0 SHL SUB SWAP1 SWAP2 AND SWAP1 PUSH4 0x40C10F19 SWAP1 PUSH2 0x1B22 SWAP1 DUP6 SWAP1 DUP6 SWAP1 PUSH1 0x4 ADD PUSH2 0x1FE0 JUMP JUMPDEST PUSH1 0x0 PUSH1 0x40 MLOAD DUP1 DUP4 SUB DUP2 PUSH1 0x0 DUP8 DUP1 EXTCODESIZE ISZERO DUP1 ISZERO PUSH2 0x1B3C JUMPI PUSH1 0x0 DUP1 REVERT JUMPDEST POP GAS CALL ISZERO DUP1 ISZERO PUSH2 0x1B50 JUMPI RETURNDATASIZE PUSH1 0x0 DUP1 RETURNDATACOPY RETURNDATASIZE PUSH1 0x0 REVERT JUMPDEST POP POP PUSH1 0xB SLOAD PUSH1 0x40 MLOAD PUSH4 0x1B82D297 PUSH1 0xE3 SHL DUP2 MSTORE PUSH1 0x1 PUSH1 0x1 PUSH1 0xA0 SHL SUB SWAP1 SWAP2 AND SWAP3 POP PUSH4 0xDC1694B8 SWAP2 POP PUSH2 0x1B86 SWAP1 DUP6 SWAP1 DUP6 SWAP1 PUSH1 0x4 ADD PUSH2 0x1FE0 JUMP JUMPDEST PUSH1 0x0 PUSH1 0x40 MLOAD DUP1 DUP4 SUB DUP2 PUSH1 0x0 DUP8 DUP1 EXTCODESIZE ISZERO DUP1 ISZERO PUSH2 0x1BA0 JUMPI PUSH1 0x0 DUP1 REVERT JUMPDEST POP GAS CALL ISZERO DUP1 ISZERO PUSH2 0x1BB4 JUMPI RETURNDATASIZE PUSH1 0x0 DUP1 RETURNDATACOPY RETURNDATASIZE PUSH1 0x0 REVERT JUMPDEST POP POP POP POP DUP2 PUSH1 0x1 PUSH1 0x1 PUSH1 0xA0 SHL SUB AND DUP5 PUSH1 0x1 PUSH1 0x1 PUSH1 0xA0 SHL SUB AND PUSH32 0x86DDAB457291316E0F5496737E5CA67C4037234C32C3BE04C48AE96186893A7B DUP4 PUSH1 0x40 MLOAD PUSH2 0x17C2 SWAP2 SWAP1 PUSH2 0x2450 JUMP JUMPDEST PUSH1 0x0 PUSH2 0x1C50 DUP3 PUSH1 0x40 MLOAD DUP1 PUSH1 0x40 ADD PUSH1 0x40 MSTORE DUP1 PUSH1 0x20 DUP2 MSTORE PUSH1 0x20 ADD PUSH32 0x5361666542455032303A206C6F772D6C6576656C2063616C6C206661696C6564 DUP2 MSTORE POP DUP6 PUSH1 0x1 PUSH1 0x1 PUSH1 0xA0 SHL SUB AND PUSH2 0x1C8A SWAP1 SWAP3 SWAP2 SWAP1 PUSH4 0xFFFFFFFF AND JUMP JUMPDEST DUP1 MLOAD SWAP1 SWAP2 POP ISZERO PUSH2 0x1827 JUMPI DUP1 DUP1 PUSH1 0x20 ADD SWAP1 MLOAD DUP2 ADD SWAP1 PUSH2 0x1C6E SWAP2 SWAP1 PUSH2 0x1DD8 JUMP JUMPDEST PUSH2 0x1827 JUMPI PUSH1 0x40 MLOAD PUSH3 0x461BCD PUSH1 0xE5 SHL DUP2 MSTORE PUSH1 0x4 ADD PUSH2 0x469 SWAP1 PUSH2 0x2158 JUMP JUMPDEST PUSH1 0x60 PUSH2 0x1C99 DUP5 DUP5 PUSH1 0x0 DUP6 PUSH2 0x1CA1 JUMP JUMPDEST SWAP5 SWAP4 POP POP POP POP JUMP JUMPDEST PUSH1 0x60 DUP3 SELFBALANCE LT ISZERO PUSH2 0x1CC3 JUMPI PUSH1 0x40 MLOAD PUSH3 0x461BCD PUSH1 0xE5 SHL DUP2 MSTORE PUSH1 0x4 ADD PUSH2 0x469 SWAP1 PUSH2 0x2279 JUMP JUMPDEST PUSH2 0x1CCC DUP6 PUSH2 0x1D61 JUMP JUMPDEST PUSH2 0x1CE8 JUMPI PUSH1 0x40 MLOAD PUSH3 0x461BCD PUSH1 0xE5 SHL DUP2 MSTORE PUSH1 0x4 ADD PUSH2 0x469 SWAP1 PUSH2 0x2370 JUMP JUMPDEST PUSH1 0x0 DUP1 DUP7 PUSH1 0x1 PUSH1 0x1 PUSH1 0xA0 SHL SUB AND DUP6 DUP8 PUSH1 0x40 MLOAD PUSH2 0x1D04 SWAP2 SWAP1 PUSH2 0x1F72 JUMP JUMPDEST PUSH1 0x0 PUSH1 0x40 MLOAD DUP1 DUP4 SUB DUP2 DUP6 DUP8 GAS CALL SWAP3 POP POP POP RETURNDATASIZE DUP1 PUSH1 0x0 DUP2 EQ PUSH2 0x1D41 JUMPI PUSH1 0x40 MLOAD SWAP2 POP PUSH1 0x1F NOT PUSH1 0x3F RETURNDATASIZE ADD AND DUP3 ADD PUSH1 0x40 MSTORE RETURNDATASIZE DUP3 MSTORE RETURNDATASIZE PUSH1 0x0 PUSH1 0x20 DUP5 ADD RETURNDATACOPY PUSH2 0x1D46 JUMP JUMPDEST PUSH1 0x60 SWAP2 POP JUMPDEST POP SWAP2 POP SWAP2 POP PUSH2 0x1D56 DUP3 DUP3 DUP7 PUSH2 0x1D67 JUMP JUMPDEST SWAP8 SWAP7 POP POP POP POP POP POP POP JUMP JUMPDEST EXTCODESIZE ISZERO ISZERO SWAP1 JUMP JUMPDEST PUSH1 0x60 DUP4 ISZERO PUSH2 0x1D76 JUMPI POP DUP2 PUSH2 0xDD9 JUMP JUMPDEST DUP3 MLOAD ISZERO PUSH2 0x1D86 JUMPI DUP3 MLOAD DUP1 DUP5 PUSH1 0x20 ADD REVERT JUMPDEST DUP2 PUSH1 0x40 MLOAD PUSH3 0x461BCD PUSH1 0xE5 SHL DUP2 MSTORE PUSH1 0x4 ADD PUSH2 0x469 SWAP2 SWAP1 PUSH2 0x203B JUMP JUMPDEST PUSH1 0x0 PUSH1 0x20 DUP3 DUP5 SUB SLT ISZERO PUSH2 0x1DB1 JUMPI DUP1 DUP2 REVERT JUMPDEST DUP2 CALLDATALOAD PUSH2 0xDD9 DUP2 PUSH2 0x254D JUMP JUMPDEST PUSH1 0x0 PUSH1 0x20 DUP3 DUP5 SUB SLT ISZERO PUSH2 0x1DCD JUMPI DUP1 DUP2 REVERT JUMPDEST DUP2 MLOAD PUSH2 0xDD9 DUP2 PUSH2 0x254D JUMP JUMPDEST PUSH1 0x0 PUSH1 0x20 DUP3 DUP5 SUB SLT ISZERO PUSH2 0x1DE9 JUMPI DUP1 DUP2 REVERT JUMPDEST DUP2 MLOAD PUSH2 0xDD9 DUP2 PUSH2 0x2562 JUMP JUMPDEST PUSH1 0x0 PUSH1 0x20 DUP3 DUP5 SUB SLT ISZERO PUSH2 0x1E05 JUMPI DUP1 DUP2 REVERT JUMPDEST DUP2 CALLDATALOAD PUSH2 0xDD9 DUP2 PUSH2 0x2570 JUMP JUMPDEST PUSH1 0x0 PUSH1 0x20 DUP3 DUP5 SUB SLT ISZERO PUSH2 0x1E21 JUMPI DUP1 DUP2 REVERT JUMPDEST DUP2 MLOAD PUSH2 0xDD9 DUP2 PUSH2 0x2570 JUMP JUMPDEST PUSH1 0x0 PUSH1 0x20 DUP3 DUP5 SUB SLT ISZERO PUSH2 0x1E3D JUMPI DUP1 DUP2 REVERT JUMPDEST POP CALLDATALOAD SWAP2 SWAP1 POP JUMP JUMPDEST PUSH1 0x0 PUSH1 0x20 DUP3 DUP5 SUB SLT ISZERO PUSH2 0x1E55 JUMPI DUP1 DUP2 REVERT JUMPDEST POP MLOAD SWAP2 SWAP1 POP JUMP JUMPDEST PUSH1 0x0 DUP1 PUSH1 0x40 DUP4 DUP6 SUB SLT ISZERO PUSH2 0x1E6E JUMPI DUP1 DUP2 REVERT JUMPDEST DUP3 CALLDATALOAD SWAP2 POP PUSH1 0x20 DUP4 ADD CALLDATALOAD PUSH2 0x1E80 DUP2 PUSH2 0x254D JUMP JUMPDEST DUP1 SWAP2 POP POP SWAP3 POP SWAP3 SWAP1 POP JUMP JUMPDEST PUSH1 0x0 DUP1 PUSH1 0x0 DUP1 PUSH1 0x0 PUSH1 0xA0 DUP7 DUP9 SUB SLT ISZERO PUSH2 0x1EA2 JUMPI DUP1 DUP2 REVERT JUMPDEST DUP6 CALLDATALOAD SWAP5 POP PUSH1 0x20 DUP7 ADD CALLDATALOAD PUSH2 0x1EB4 DUP2 PUSH2 0x254D JUMP JUMPDEST SWAP4 POP PUSH1 0x40 DUP7 ADD CALLDATALOAD PUSH2 0x1EC4 DUP2 PUSH2 0x2570 JUMP JUMPDEST SWAP3 POP PUSH1 0x60 DUP7 ADD CALLDATALOAD SWAP2 POP PUSH1 0x80 DUP7 ADD CALLDATALOAD PUSH2 0x1EDB DUP2 PUSH2 0x2562 JUMP JUMPDEST DUP1 SWAP2 POP POP SWAP3 SWAP6 POP SWAP3 SWAP6 SWAP1 SWAP4 POP JUMP JUMPDEST PUSH1 0x0 DUP1 PUSH1 0x40 DUP4 DUP6 SUB SLT ISZERO PUSH2 0x1EFB JUMPI DUP2 DUP3 REVERT JUMPDEST POP POP DUP1 CALLDATALOAD SWAP3 PUSH1 0x20 SWAP1 SWAP2 ADD CALLDATALOAD SWAP2 POP JUMP JUMPDEST PUSH1 0x0 DUP1 PUSH1 0x0 PUSH1 0x60 DUP5 DUP7 SUB SLT ISZERO PUSH2 0x1F1E JUMPI DUP3 DUP4 REVERT JUMPDEST DUP4 CALLDATALOAD SWAP3 POP PUSH1 0x20 DUP5 ADD CALLDATALOAD SWAP2 POP PUSH1 0x40 DUP5 ADD CALLDATALOAD PUSH2 0x1F37 DUP2 PUSH2 0x254D JUMP JUMPDEST DUP1 SWAP2 POP POP SWAP3 POP SWAP3 POP SWAP3 JUMP JUMPDEST PUSH1 0x0 DUP1 PUSH1 0x0 DUP1 PUSH1 0x0 PUSH1 0xA0 DUP7 DUP9 SUB SLT ISZERO PUSH2 0x1F59 JUMPI DUP1 DUP2 REVERT JUMPDEST DUP6 CALLDATALOAD SWAP5 POP PUSH1 0x20 DUP7 ADD CALLDATALOAD SWAP4 POP PUSH1 0x40 DUP7 ADD CALLDATALOAD PUSH2 0x1EC4 DUP2 PUSH2 0x2570 JUMP JUMPDEST PUSH1 0x0 DUP3 MLOAD PUSH2 0x1F84 DUP2 DUP5 PUSH1 0x20 DUP8 ADD PUSH2 0x24F0 JUMP JUMPDEST SWAP2 SWAP1 SWAP2 ADD SWAP3 SWAP2 POP POP JUMP JUMPDEST PUSH1 0x1 PUSH1 0x1 PUSH1 0xA0 SHL SUB SWAP2 SWAP1 SWAP2 AND DUP2 MSTORE PUSH1 0x20 ADD SWAP1 JUMP JUMPDEST PUSH1 0x1 PUSH1 0x1 PUSH1 0xA0 SHL SUB SWAP3 DUP4 AND DUP2 MSTORE SWAP2 AND PUSH1 0x20 DUP3 ADD MSTORE PUSH1 0x40 ADD SWAP1 JUMP JUMPDEST PUSH1 0x1 PUSH1 0x1 PUSH1 0xA0 SHL SUB SWAP4 DUP5 AND DUP2 MSTORE SWAP2 SWAP1 SWAP3 AND PUSH1 0x20 DUP3 ADD MSTORE PUSH1 0x40 DUP2 ADD SWAP2 SWAP1 SWAP2 MSTORE PUSH1 0x60 ADD SWAP1 JUMP JUMPDEST PUSH1 0x1 PUSH1 0x1 PUSH1 0xA0 SHL SUB SWAP3 SWAP1 SWAP3 AND DUP3 MSTORE PUSH1 0x20 DUP3 ADD MSTORE PUSH1 0x40 ADD SWAP1 JUMP JUMPDEST SWAP1 ISZERO ISZERO DUP2 MSTORE PUSH1 0x20 ADD SWAP1 JUMP JUMPDEST PUSH1 0x1 PUSH1 0x1 PUSH1 0xA0 SHL SUB SWAP7 SWAP1 SWAP7 AND DUP7 MSTORE PUSH1 0x20 DUP7 ADD SWAP5 SWAP1 SWAP5 MSTORE PUSH1 0x40 DUP6 ADD SWAP3 SWAP1 SWAP3 MSTORE PUSH1 0x60 DUP5 ADD MSTORE PUSH2 0xFFFF AND PUSH1 0x80 DUP4 ADD MSTORE PUSH1 0xA0 DUP3 ADD MSTORE PUSH1 0xC0 ADD SWAP1 JUMP JUMPDEST PUSH1 0x0 PUSH1 0x20 DUP3 MSTORE DUP3 MLOAD DUP1 PUSH1 0x20 DUP5 ADD MSTORE PUSH2 0x205A DUP2 PUSH1 0x40 DUP6 ADD PUSH1 0x20 DUP8 ADD PUSH2 0x24F0 JUMP JUMPDEST PUSH1 0x1F ADD PUSH1 0x1F NOT AND SWAP2 SWAP1 SWAP2 ADD PUSH1 0x40 ADD SWAP3 SWAP2 POP POP JUMP JUMPDEST PUSH1 0x20 DUP1 DUP3 MSTORE PUSH1 0x25 SWAP1 DUP3 ADD MSTORE PUSH32 0x6164643A20696E76616C6964206465706F736974206665652062617369732070 PUSH1 0x40 DUP3 ADD MSTORE PUSH5 0x6F696E7473 PUSH1 0xD8 SHL PUSH1 0x60 DUP3 ADD MSTORE PUSH1 0x80 ADD SWAP1 JUMP JUMPDEST PUSH1 0x20 DUP1 DUP3 MSTORE PUSH1 0x48 SWAP1 DUP3 ADD MSTORE PUSH32 0x736574526566657272616C436F6D6D697373696F6E526174653A20696E76616C PUSH1 0x40 DUP3 ADD MSTORE PUSH32 0x696420726566657272616C20636F6D6D697373696F6E20726174652062617369 PUSH1 0x60 DUP3 ADD MSTORE PUSH8 0x7320706F696E7473 PUSH1 0xC0 SHL PUSH1 0x80 DUP3 ADD MSTORE PUSH1 0xA0 ADD SWAP1 JUMP JUMPDEST PUSH1 0x20 DUP1 DUP3 MSTORE PUSH1 0x18 SWAP1 DUP3 ADD MSTORE PUSH32 0x736574446576416464726573733A20464F5242494444454E0000000000000000 PUSH1 0x40 DUP3 ADD MSTORE PUSH1 0x60 ADD SWAP1 JUMP JUMPDEST PUSH1 0x20 DUP1 DUP3 MSTORE PUSH1 0x2A SWAP1 DUP3 ADD MSTORE PUSH32 0x5361666542455032303A204245503230206F7065726174696F6E20646964206E PUSH1 0x40 DUP3 ADD MSTORE PUSH10 0x1BDD081CDD58D8D95959 PUSH1 0xB2 SHL PUSH1 0x60 DUP3 ADD MSTORE PUSH1 0x80 ADD SWAP1 JUMP JUMPDEST PUSH1 0x20 DUP1 DUP3 MSTORE PUSH1 0x26 SWAP1 DUP3 ADD MSTORE PUSH32 0x4F776E61626C653A206E6577206F776E657220697320746865207A65726F2061 PUSH1 0x40 DUP3 ADD MSTORE PUSH6 0x646472657373 PUSH1 0xD0 SHL PUSH1 0x60 DUP3 ADD MSTORE PUSH1 0x80 ADD SWAP1 JUMP JUMPDEST PUSH1 0x20 DUP1 DUP3 MSTORE PUSH1 0x13 SWAP1 DUP3 ADD MSTORE PUSH19 0x736574446576416464726573733A205A45524F PUSH1 0x68 SHL PUSH1 0x40 DUP3 ADD MSTORE PUSH1 0x60 ADD SWAP1 JUMP JUMPDEST PUSH1 0x20 DUP1 DUP3 MSTORE PUSH1 0x13 SWAP1 DUP3 ADD MSTORE PUSH19 0x736574466565416464726573733A205A45524F PUSH1 0x68 SHL PUSH1 0x40 DUP3 ADD MSTORE PUSH1 0x60 ADD SWAP1 JUMP JUMPDEST PUSH1 0x20 DUP1 DUP3 MSTORE PUSH1 0x1D SWAP1 DUP3 ADD MSTORE PUSH32 0x6164643A20696E76616C6964206861727665737420696E74657276616C000000 PUSH1 0x40 DUP3 ADD MSTORE PUSH1 0x60 ADD SWAP1 JUMP JUMPDEST PUSH1 0x20 DUP1 DUP3 MSTORE PUSH1 0x26 SWAP1 DUP3 ADD MSTORE PUSH32 0x416464726573733A20696E73756666696369656E742062616C616E636520666F PUSH1 0x40 DUP3 ADD MSTORE PUSH6 0x1C8818D85B1B PUSH1 0xD2 SHL PUSH1 0x60 DUP3 ADD MSTORE PUSH1 0x80 ADD SWAP1 JUMP JUMPDEST PUSH1 0x20 DUP1 DUP3 MSTORE PUSH1 0x25 SWAP1 DUP3 ADD MSTORE PUSH32 0x7365743A20696E76616C6964206465706F736974206665652062617369732070 PUSH1 0x40 DUP3 ADD MSTORE PUSH5 0x6F696E7473 PUSH1 0xD8 SHL PUSH1 0x60 DUP3 ADD MSTORE PUSH1 0x80 ADD SWAP1 JUMP JUMPDEST PUSH1 0x20 DUP1 DUP3 MSTORE DUP2 DUP2 ADD MSTORE PUSH32 0x4F776E61626C653A2063616C6C6572206973206E6F7420746865206F776E6572 PUSH1 0x40 DUP3 ADD MSTORE PUSH1 0x60 ADD SWAP1 JUMP JUMPDEST PUSH1 0x20 DUP1 DUP3 MSTORE PUSH1 0x1D SWAP1 DUP3 ADD MSTORE PUSH32 0x7365743A20696E76616C6964206861727665737420696E74657276616C000000 PUSH1 0x40 DUP3 ADD MSTORE PUSH1 0x60 ADD SWAP1 JUMP JUMPDEST PUSH1 0x20 DUP1 DUP3 MSTORE PUSH1 0x1D SWAP1 DUP3 ADD MSTORE PUSH32 0x416464726573733A2063616C6C20746F206E6F6E2D636F6E7472616374000000 PUSH1 0x40 DUP3 ADD MSTORE PUSH1 0x60 ADD SWAP1 JUMP JUMPDEST PUSH1 0x20 DUP1 DUP3 MSTORE PUSH1 0x12 SWAP1 DUP3 ADD MSTORE PUSH18 0x1DDA5D1A191C985DCE881B9BDD0819DBDBD9 PUSH1 0x72 SHL PUSH1 0x40 DUP3 ADD MSTORE PUSH1 0x60 ADD SWAP1 JUMP JUMPDEST PUSH1 0x20 DUP1 DUP3 MSTORE PUSH1 0x18 SWAP1 DUP3 ADD MSTORE PUSH32 0x736574466565416464726573733A20464F5242494444454E0000000000000000 PUSH1 0x40 DUP3 ADD MSTORE PUSH1 0x60 ADD SWAP1 JUMP JUMPDEST PUSH1 0x20 DUP1 DUP3 MSTORE PUSH1 0x1F SWAP1 DUP3 ADD MSTORE PUSH32 0x5265656E7472616E637947756172643A207265656E7472616E742063616C6C00 PUSH1 0x40 DUP3 ADD MSTORE PUSH1 0x60 ADD SWAP1 JUMP JUMPDEST PUSH2 0xFFFF SWAP2 SWAP1 SWAP2 AND DUP2 MSTORE PUSH1 0x20 ADD SWAP1 JUMP JUMPDEST SWAP1 DUP2 MSTORE PUSH1 0x20 ADD SWAP1 JUMP JUMPDEST SWAP2 DUP3 MSTORE PUSH1 0x20 DUP3 ADD MSTORE PUSH1 0x40 ADD SWAP1 JUMP JUMPDEST SWAP4 DUP5 MSTORE PUSH1 0x20 DUP5 ADD SWAP3 SWAP1 SWAP3 MSTORE PUSH1 0x40 DUP4 ADD MSTORE PUSH1 0x60 DUP3 ADD MSTORE PUSH1 0x80 ADD SWAP1 JUMP JUMPDEST PUSH1 0x0 DUP3 NOT DUP3 GT ISZERO PUSH2 0x2495 JUMPI PUSH2 0x2495 PUSH2 0x2537 JUMP JUMPDEST POP ADD SWAP1 JUMP JUMPDEST PUSH1 0x0 DUP3 PUSH2 0x24B5 JUMPI PUSH4 0x4E487B71 PUSH1 0xE0 SHL DUP2 MSTORE PUSH1 0x12 PUSH1 0x4 MSTORE PUSH1 0x24 DUP2 REVERT JUMPDEST POP DIV SWAP1 JUMP JUMPDEST PUSH1 0x0 DUP2 PUSH1 0x0 NOT DIV DUP4 GT DUP3 ISZERO ISZERO AND ISZERO PUSH2 0x24D4 JUMPI PUSH2 0x24D4 PUSH2 0x2537 JUMP JUMPDEST POP MUL SWAP1 JUMP JUMPDEST PUSH1 0x0 DUP3 DUP3 LT ISZERO PUSH2 0x24EB JUMPI PUSH2 0x24EB PUSH2 0x2537 JUMP JUMPDEST POP SUB SWAP1 JUMP JUMPDEST PUSH1 0x0 JUMPDEST DUP4 DUP2 LT ISZERO PUSH2 0x250B JUMPI DUP2 DUP2 ADD MLOAD DUP4 DUP3 ADD MSTORE PUSH1 0x20 ADD PUSH2 0x24F3 JUMP JUMPDEST DUP4 DUP2 GT ISZERO PUSH2 0x17CB JUMPI POP POP PUSH1 0x0 SWAP2 ADD MSTORE JUMP JUMPDEST PUSH1 0x0 PUSH1 0x0 NOT DUP3 EQ ISZERO PUSH2 0x2530 JUMPI PUSH2 0x2530 PUSH2 0x2537 JUMP JUMPDEST POP PUSH1 0x1 ADD SWAP1 JUMP JUMPDEST PUSH4 0x4E487B71 PUSH1 0xE0 SHL PUSH1 0x0 MSTORE PUSH1 0x11 PUSH1 0x4 MSTORE PUSH1 0x24 PUSH1 0x0 REVERT JUMPDEST PUSH1 0x1 PUSH1 0x1 PUSH1 0xA0 SHL SUB DUP2 AND DUP2 EQ PUSH2 0xB18 JUMPI PUSH1 0x0 DUP1 REVERT JUMPDEST DUP1 ISZERO ISZERO DUP2 EQ PUSH2 0xB18 JUMPI PUSH1 0x0 DUP1 REVERT JUMPDEST PUSH2 0xFFFF DUP2 AND DUP2 EQ PUSH2 0xB18 JUMPI PUSH1 0x0 DUP1 REVERT INVALID LOG2 PUSH5 0x6970667358 0x22 SLT KECCAK256 0xAD 0xEA MUL DUP7 MOD PUSH2 0x477D 0xEF 0xB7 0xF9 0xBA PUSH29 0xF3767625F31B8357887A328C9016D298FABBB864736F6C634300080000 CALLER "
		},
		"gasEstimates": {
			"creation": {
				"codeDepositCost": "1930800",
				"executionCost": "infinite",
				"totalCost": "infinite"
			},
			"external": {
				"BONUS_MULTIPLIER()": "295",
				"MAXIMUM_HARVEST_INTERVAL()": "338",
				"MAXIMUM_REFERRAL_COMMISSION_RATE()": "352",
				"add(uint256,address,uint16,uint256,bool)": "infinite",
				"canHarvest(uint256,address)": "1461",
				"deposit(uint256,uint256,address)": "infinite",
				"devAddress()": "1160",
				"emergencyWithdraw(uint256)": "infinite",
				"feeAddress()": "1182",
				"getMultiplier(uint256,uint256)": "infinite",
				"massUpdatePools()": "infinite",
				"owner()": "1159",
				"pendingPepe(uint256,address)": "infinite",
				"pepe()": "1138",
				"pepePerBlock()": "1140",
				"pepeReferral()": "1137",
				"poolInfo(uint256)": "6341",
				"poolLength()": "1075",
				"referralCommissionRate()": "1151",
				"renounceOwnership()": "24345",
				"set(uint256,uint256,uint16,uint256,bool)": "infinite",
				"setDevAddress(address)": "22106",
				"setFeeAddress(address)": "22085",
				"setPepeReferral(address)": "22162",
				"setReferralCommissionRate(uint16)": "22160",
				"startBlock()": "1073",
				"totalAllocPoint()": "1141",
				"totalLockedUpRewards()": "1118",
				"transferOwnership(address)": "24616",
				"updateEmissionRate(uint256)": "infinite",
				"updatePool(uint256)": "infinite",
				"userInfo(uint256,address)": "3946",
				"withdraw(uint256,uint256)": "infinite"
			},
			"internal": {
				"payOrLockupPendingPepe(uint256)": "infinite",
				"payReferralCommission(address,uint256)": "infinite",
				"safePepeTransfer(address,uint256)": "infinite"
			}
		},
		"methodIdentifiers": {
			"BONUS_MULTIPLIER()": "8aa28550",
			"MAXIMUM_HARVEST_INTERVAL()": "de73149d",
			"MAXIMUM_REFERRAL_COMMISSION_RATE()": "48b22bfb",
			"add(uint256,address,uint16,uint256,bool)": "af018de8",
			"canHarvest(uint256,address)": "2e6c998d",
			"deposit(uint256,uint256,address)": "8dbdbe6d",
			"devAddress()": "3ad10ef6",
			"emergencyWithdraw(uint256)": "5312ea8e",
			"feeAddress()": "41275358",
			"getMultiplier(uint256,uint256)": "8dbb1e3a",
			"massUpdatePools()": "630b5ba1",
			"owner()": "8da5cb5b",
			"pendingPepe(uint256,address)": "cdf93057",
			"pepe()": "46111e7a",
			"pepePerBlock()": "84403589",
			"pepeReferral()": "8faf3a58",
			"poolInfo(uint256)": "1526fe27",
			"poolLength()": "081e3eda",
			"referralCommissionRate()": "d30ef61b",
			"renounceOwnership()": "715018a6",
			"set(uint256,uint256,uint16,uint256,bool)": "2143e545",
			"setDevAddress(address)": "d0d41fe1",
			"setFeeAddress(address)": "8705fcd4",
			"setPepeReferral(address)": "4d6251b2",
			"setReferralCommissionRate(uint16)": "55dbc826",
			"startBlock()": "48cd4cb1",
			"totalAllocPoint()": "17caf6f1",
			"totalLockedUpRewards()": "474fa630",
			"transferOwnership(address)": "f2fde38b",
			"updateEmissionRate(uint256)": "0ba84cd2",
			"updatePool(uint256)": "51eb05a6",
			"userInfo(uint256,address)": "93f1a40b",
			"withdraw(uint256,uint256)": "441a3e70"
		}
	},
	"abi": [
		{
			"inputs": [
				{
					"internalType": "contract PepeToken",
					"name": "_pepe",
					"type": "address"
				},
				{
					"internalType": "uint256",
					"name": "_startBlock",
					"type": "uint256"
				},
				{
					"internalType": "uint256",
					"name": "_pepePerBlock",
					"type": "uint256"
				}
			],
			"stateMutability": "nonpayable",
			"type": "constructor"
		},
		{
			"anonymous": false,
			"inputs": [
				{
					"indexed": true,
					"internalType": "address",
					"name": "user",
					"type": "address"
				},
				{
					"indexed": true,
					"internalType": "uint256",
					"name": "pid",
					"type": "uint256"
				},
				{
					"indexed": false,
					"internalType": "uint256",
					"name": "amount",
					"type": "uint256"
				}
			],
			"name": "Deposit",
			"type": "event"
		},
		{
			"anonymous": false,
			"inputs": [
				{
					"indexed": true,
					"internalType": "address",
					"name": "user",
					"type": "address"
				},
				{
					"indexed": true,
					"internalType": "uint256",
					"name": "pid",
					"type": "uint256"
				},
				{
					"indexed": false,
					"internalType": "uint256",
					"name": "amount",
					"type": "uint256"
				}
			],
			"name": "EmergencyWithdraw",
			"type": "event"
		},
		{
			"anonymous": false,
			"inputs": [
				{
					"indexed": true,
					"internalType": "address",
					"name": "caller",
					"type": "address"
				},
				{
					"indexed": false,
					"internalType": "uint256",
					"name": "previousAmount",
					"type": "uint256"
				},
				{
					"indexed": false,
					"internalType": "uint256",
					"name": "newAmount",
					"type": "uint256"
				}
			],
			"name": "EmissionRateUpdated",
			"type": "event"
		},
		{
			"anonymous": false,
			"inputs": [
				{
					"indexed": true,
					"internalType": "address",
					"name": "previousOwner",
					"type": "address"
				},
				{
					"indexed": true,
					"internalType": "address",
					"name": "newOwner",
					"type": "address"
				}
			],
			"name": "OwnershipTransferred",
			"type": "event"
		},
		{
			"anonymous": false,
			"inputs": [
				{
					"indexed": true,
					"internalType": "address",
					"name": "user",
					"type": "address"
				},
				{
					"indexed": true,
					"internalType": "address",
					"name": "referrer",
					"type": "address"
				},
				{
					"indexed": false,
					"internalType": "uint256",
					"name": "commissionAmount",
					"type": "uint256"
				}
			],
			"name": "ReferralCommissionPaid",
			"type": "event"
		},
		{
			"anonymous": false,
			"inputs": [
				{
					"indexed": true,
					"internalType": "address",
					"name": "user",
					"type": "address"
				},
				{
					"indexed": true,
					"internalType": "uint256",
					"name": "pid",
					"type": "uint256"
				},
				{
					"indexed": false,
					"internalType": "uint256",
					"name": "amountLockedUp",
					"type": "uint256"
				}
			],
			"name": "RewardLockedUp",
			"type": "event"
		},
		{
			"anonymous": false,
			"inputs": [
				{
					"indexed": true,
					"internalType": "address",
					"name": "user",
					"type": "address"
				},
				{
					"indexed": true,
					"internalType": "uint256",
					"name": "pid",
					"type": "uint256"
				},
				{
					"indexed": false,
					"internalType": "uint256",
					"name": "amount",
					"type": "uint256"
				}
			],
			"name": "Withdraw",
			"type": "event"
		},
		{
			"inputs": [],
			"name": "BONUS_MULTIPLIER",
			"outputs": [
				{
					"internalType": "uint256",
					"name": "",
					"type": "uint256"
				}
			],
			"stateMutability": "view",
			"type": "function"
		},
		{
			"inputs": [],
			"name": "MAXIMUM_HARVEST_INTERVAL",
			"outputs": [
				{
					"internalType": "uint256",
					"name": "",
					"type": "uint256"
				}
			],
			"stateMutability": "view",
			"type": "function"
		},
		{
			"inputs": [],
			"name": "MAXIMUM_REFERRAL_COMMISSION_RATE",
			"outputs": [
				{
					"internalType": "uint16",
					"name": "",
					"type": "uint16"
				}
			],
			"stateMutability": "view",
			"type": "function"
		},
		{
			"inputs": [
				{
					"internalType": "uint256",
					"name": "_allocPoint",
					"type": "uint256"
				},
				{
					"internalType": "contract IBEP20",
					"name": "_lpToken",
					"type": "address"
				},
				{
					"internalType": "uint16",
					"name": "_depositFeeBP",
					"type": "uint16"
				},
				{
					"internalType": "uint256",
					"name": "_harvestInterval",
					"type": "uint256"
				},
				{
					"internalType": "bool",
					"name": "_withUpdate",
					"type": "bool"
				}
			],
			"name": "add",
			"outputs": [],
			"stateMutability": "nonpayable",
			"type": "function"
		},
		{
			"inputs": [
				{
					"internalType": "uint256",
					"name": "_pid",
					"type": "uint256"
				},
				{
					"internalType": "address",
					"name": "_user",
					"type": "address"
				}
			],
			"name": "canHarvest",
			"outputs": [
				{
					"internalType": "bool",
					"name": "",
					"type": "bool"
				}
			],
			"stateMutability": "view",
			"type": "function"
		},
		{
			"inputs": [
				{
					"internalType": "uint256",
					"name": "_pid",
					"type": "uint256"
				},
				{
					"internalType": "uint256",
					"name": "_amount",
					"type": "uint256"
				},
				{
					"internalType": "address",
					"name": "_referrer",
					"type": "address"
				}
			],
			"name": "deposit",
			"outputs": [],
			"stateMutability": "nonpayable",
			"type": "function"
		},
		{
			"inputs": [],
			"name": "devAddress",
			"outputs": [
				{
					"internalType": "address",
					"name": "",
					"type": "address"
				}
			],
			"stateMutability": "view",
			"type": "function"
		},
		{
			"inputs": [
				{
					"internalType": "uint256",
					"name": "_pid",
					"type": "uint256"
				}
			],
			"name": "emergencyWithdraw",
			"outputs": [],
			"stateMutability": "nonpayable",
			"type": "function"
		},
		{
			"inputs": [],
			"name": "feeAddress",
			"outputs": [
				{
					"internalType": "address",
					"name": "",
					"type": "address"
				}
			],
			"stateMutability": "view",
			"type": "function"
		},
		{
			"inputs": [
				{
					"internalType": "uint256",
					"name": "_from",
					"type": "uint256"
				},
				{
					"internalType": "uint256",
					"name": "_to",
					"type": "uint256"
				}
			],
			"name": "getMultiplier",
			"outputs": [
				{
					"internalType": "uint256",
					"name": "",
					"type": "uint256"
				}
			],
			"stateMutability": "pure",
			"type": "function"
		},
		{
			"inputs": [],
			"name": "massUpdatePools",
			"outputs": [],
			"stateMutability": "nonpayable",
			"type": "function"
		},
		{
			"inputs": [],
			"name": "owner",
			"outputs": [
				{
					"internalType": "address",
					"name": "",
					"type": "address"
				}
			],
			"stateMutability": "view",
			"type": "function"
		},
		{
			"inputs": [
				{
					"internalType": "uint256",
					"name": "_pid",
					"type": "uint256"
				},
				{
					"internalType": "address",
					"name": "_user",
					"type": "address"
				}
			],
			"name": "pendingPepe",
			"outputs": [
				{
					"internalType": "uint256",
					"name": "",
					"type": "uint256"
				}
			],
			"stateMutability": "view",
			"type": "function"
		},
		{
			"inputs": [],
			"name": "pepe",
			"outputs": [
				{
					"internalType": "contract PepeToken",
					"name": "",
					"type": "address"
				}
			],
			"stateMutability": "view",
			"type": "function"
		},
		{
			"inputs": [],
			"name": "pepePerBlock",
			"outputs": [
				{
					"internalType": "uint256",
					"name": "",
					"type": "uint256"
				}
			],
			"stateMutability": "view",
			"type": "function"
		},
		{
			"inputs": [],
			"name": "pepeReferral",
			"outputs": [
				{
					"internalType": "contract IPepeReferral",
					"name": "",
					"type": "address"
				}
			],
			"stateMutability": "view",
			"type": "function"
		},
		{
			"inputs": [
				{
					"internalType": "uint256",
					"name": "",
					"type": "uint256"
				}
			],
			"name": "poolInfo",
			"outputs": [
				{
					"internalType": "contract IBEP20",
					"name": "lpToken",
					"type": "address"
				},
				{
					"internalType": "uint256",
					"name": "allocPoint",
					"type": "uint256"
				},
				{
					"internalType": "uint256",
					"name": "lastRewardBlock",
					"type": "uint256"
				},
				{
					"internalType": "uint256",
					"name": "accPepePerShare",
					"type": "uint256"
				},
				{
					"internalType": "uint16",
					"name": "depositFeeBP",
					"type": "uint16"
				},
				{
					"internalType": "uint256",
					"name": "harvestInterval",
					"type": "uint256"
				}
			],
			"stateMutability": "view",
			"type": "function"
		},
		{
			"inputs": [],
			"name": "poolLength",
			"outputs": [
				{
					"internalType": "uint256",
					"name": "",
					"type": "uint256"
				}
			],
			"stateMutability": "view",
			"type": "function"
		},
		{
			"inputs": [],
			"name": "referralCommissionRate",
			"outputs": [
				{
					"internalType": "uint16",
					"name": "",
					"type": "uint16"
				}
			],
			"stateMutability": "view",
			"type": "function"
		},
		{
			"inputs": [],
			"name": "renounceOwnership",
			"outputs": [],
			"stateMutability": "nonpayable",
			"type": "function"
		},
		{
			"inputs": [
				{
					"internalType": "uint256",
					"name": "_pid",
					"type": "uint256"
				},
				{
					"internalType": "uint256",
					"name": "_allocPoint",
					"type": "uint256"
				},
				{
					"internalType": "uint16",
					"name": "_depositFeeBP",
					"type": "uint16"
				},
				{
					"internalType": "uint256",
					"name": "_harvestInterval",
					"type": "uint256"
				},
				{
					"internalType": "bool",
					"name": "_withUpdate",
					"type": "bool"
				}
			],
			"name": "set",
			"outputs": [],
			"stateMutability": "nonpayable",
			"type": "function"
		},
		{
			"inputs": [
				{
					"internalType": "address",
					"name": "_devAddress",
					"type": "address"
				}
			],
			"name": "setDevAddress",
			"outputs": [],
			"stateMutability": "nonpayable",
			"type": "function"
		},
		{
			"inputs": [
				{
					"internalType": "address",
					"name": "_feeAddress",
					"type": "address"
				}
			],
			"name": "setFeeAddress",
			"outputs": [],
			"stateMutability": "nonpayable",
			"type": "function"
		},
		{
			"inputs": [
				{
					"internalType": "contract IPepeReferral",
					"name": "_pepeReferral",
					"type": "address"
				}
			],
			"name": "setPepeReferral",
			"outputs": [],
			"stateMutability": "nonpayable",
			"type": "function"
		},
		{
			"inputs": [
				{
					"internalType": "uint16",
					"name": "_referralCommissionRate",
					"type": "uint16"
				}
			],
			"name": "setReferralCommissionRate",
			"outputs": [],
			"stateMutability": "nonpayable",
			"type": "function"
		},
		{
			"inputs": [],
			"name": "startBlock",
			"outputs": [
				{
					"internalType": "uint256",
					"name": "",
					"type": "uint256"
				}
			],
			"stateMutability": "view",
			"type": "function"
		},
		{
			"inputs": [],
			"name": "totalAllocPoint",
			"outputs": [
				{
					"internalType": "uint256",
					"name": "",
					"type": "uint256"
				}
			],
			"stateMutability": "view",
			"type": "function"
		},
		{
			"inputs": [],
			"name": "totalLockedUpRewards",
			"outputs": [
				{
					"internalType": "uint256",
					"name": "",
					"type": "uint256"
				}
			],
			"stateMutability": "view",
			"type": "function"
		},
		{
			"inputs": [
				{
					"internalType": "address",
					"name": "newOwner",
					"type": "address"
				}
			],
			"name": "transferOwnership",
			"outputs": [],
			"stateMutability": "nonpayable",
			"type": "function"
		},
		{
			"inputs": [
				{
					"internalType": "uint256",
					"name": "_pepePerBlock",
					"type": "uint256"
				}
			],
			"name": "updateEmissionRate",
			"outputs": [],
			"stateMutability": "nonpayable",
			"type": "function"
		},
		{
			"inputs": [
				{
					"internalType": "uint256",
					"name": "_pid",
					"type": "uint256"
				}
			],
			"name": "updatePool",
			"outputs": [],
			"stateMutability": "nonpayable",
			"type": "function"
		},
		{
			"inputs": [
				{
					"internalType": "uint256",
					"name": "",
					"type": "uint256"
				},
				{
					"internalType": "address",
					"name": "",
					"type": "address"
				}
			],
			"name": "userInfo",
			"outputs": [
				{
					"internalType": "uint256",
					"name": "amount",
					"type": "uint256"
				},
				{
					"internalType": "uint256",
					"name": "rewardDebt",
					"type": "uint256"
				},
				{
					"internalType": "uint256",
					"name": "rewardLockedUp",
					"type": "uint256"
				},
				{
					"internalType": "uint256",
					"name": "nextHarvestUntil",
					"type": "uint256"
				}
			],
			"stateMutability": "view",
			"type": "function"
		},
		{
			"inputs": [
				{
					"internalType": "uint256",
					"name": "_pid",
					"type": "uint256"
				},
				{
					"internalType": "uint256",
					"name": "_amount",
					"type": "uint256"
				}
			],
			"name": "withdraw",
			"outputs": [],
			"stateMutability": "nonpayable",
			"type": "function"
		}
	]
}