{
	"data": {
		"bytecode": {
			"linkReferences": {},
			"object": "608060405234801561001057600080fd5b50600061001b61006a565b600080546001600160a01b0319166001600160a01b0383169081178255604051929350917f8be0079c531659141344cd1fd0a4f28419497f9722a3daafe3b4186f6b6457e0908290a35061006e565b3390565b610c268061007d6000396000f3fe608060405234801561001057600080fd5b50600436106100b45760003560e01c8063715018a611610071578063715018a61461015d57806379547628146101655780638da5cb5b146101785780639ecfc6ea14610180578063dc1694b814610193578063f2fde38b146101a6576100b4565b80630c7f7b6b146100b957806313e7c9d8146100ce5780634a3b68cc146100f75780634a9fefc7146101175780636b366c661461012a5780636d44a3b21461014a575b600080fd5b6100cc6100c7366004610873565b6101b9565b005b6100e16100dc366004610857565b6102e6565b6040516100ee91906109a9565b60405180910390f35b61010a610105366004610857565b6102fb565b6040516100ee919061097c565b61010a610125366004610857565b610316565b61013d610138366004610857565b610334565b6040516100ee9190610b6d565b6100cc6101583660046108ab565b610346565b6100cc6103d9565b6100cc61017336600461091f565b610462565b61010a6104ba565b61013d61018e366004610857565b6104c9565b6100cc6101a13660046108d8565b6104db565b6100cc6101b4366004610857565b61059b565b3360009081526001602052604090205460ff166101f15760405162461bcd60e51b81526004016101e890610b29565b60405180910390fd5b6001600160a01b0382161580159061021157506001600160a01b03811615155b801561022f5750806001600160a01b0316826001600160a01b031614155b801561025357506001600160a01b0382811660009081526002602052604090205416155b156102e2576001600160a01b03828116600090815260026020908152604080832080546001600160a01b0319169486169485179055928252600390529081208054600192906102a3908490610b76565b90915550506040516001600160a01b0380831691908416907ff61ccbe316daff56654abed758191f9a4dcac526d43747a50a2d545c0ca64d8290600090a35b5050565b60016020526000908152604090205460ff1681565b6002602052600090815260409020546001600160a01b031681565b6001600160a01b039081166000908152600260205260409020541690565b60036020526000908152604090205481565b61034e61065b565b6001600160a01b031661035f6104ba565b6001600160a01b0316146103855760405162461bcd60e51b81526004016101e890610abd565b6001600160a01b038216600081815260016020526040808220805460ff191685151590811790915590519092917f966c160e1c4dbc7df8d69af4ace01e9297c3cf016397b7914971f2fbfa32672d91a35050565b6103e161065b565b6001600160a01b03166103f26104ba565b6001600160a01b0316146104185760405162461bcd60e51b81526004016101e890610abd565b600080546040516001600160a01b03909116907f8be0079c531659141344cd1fd0a4f28419497f9722a3daafe3b4186f6b6457e0908390a3600080546001600160a01b0319169055565b61046a61065b565b6001600160a01b031661047b6104ba565b6001600160a01b0316146104a15760405162461bcd60e51b81526004016101e890610abd565b6104b56001600160a01b038416828461065f565b505050565b6000546001600160a01b031690565b60046020526000908152604090205481565b3360009081526001602052604090205460ff1661050a5760405162461bcd60e51b81526004016101e890610b29565b6001600160a01b038216158015906105225750600081115b156102e2576001600160a01b0382166000908152600460205260408120805483929061054f908490610b76565b92505081905550816001600160a01b03167f91badd4ef769cf56b7db0b350b95c9fb6d973e6e37d28a51fed219cc7d53184f8260405161058f9190610b6d565b60405180910390a25050565b6105a361065b565b6001600160a01b03166105b46104ba565b6001600160a01b0316146105da5760405162461bcd60e51b81526004016101e890610abd565b6001600160a01b0381166106005760405162461bcd60e51b81526004016101e890610a31565b600080546040516001600160a01b03808516939216917f8be0079c531659141344cd1fd0a4f28419497f9722a3daafe3b4186f6b6457e091a3600080546001600160a01b0319166001600160a01b0392909216919091179055565b3390565b6104b58363a9059cbb60e01b848460405160240161067e929190610990565b60408051601f198184030181529190526020810180516001600160e01b03166001600160e01b0319909316929092179091526000610705826040518060400160405280602081526020017f5361666542455032303a206c6f772d6c6576656c2063616c6c206661696c6564815250856001600160a01b031661073f9092919063ffffffff16565b8051909150156104b557808060200190518101906107239190610903565b6104b55760405162461bcd60e51b81526004016101e8906109e7565b606061074e8484600085610758565b90505b9392505050565b60608247101561077a5760405162461bcd60e51b81526004016101e890610a77565b61078385610818565b61079f5760405162461bcd60e51b81526004016101e890610af2565b600080866001600160a01b031685876040516107bb9190610960565b60006040518083038185875af1925050503d80600081146107f8576040519150601f19603f3d011682016040523d82523d6000602084013e6107fd565b606091505b509150915061080d82828661081e565b979650505050505050565b3b151590565b6060831561082d575081610751565b82511561083d5782518084602001fd5b8160405162461bcd60e51b81526004016101e891906109b4565b600060208284031215610868578081fd5b813561075181610bca565b60008060408385031215610885578081fd5b823561089081610bca565b915060208301356108a081610bca565b809150509250929050565b600080604083850312156108bd578182fd5b82356108c881610bca565b915060208301356108a081610be2565b600080604083850312156108ea578182fd5b82356108f581610bca565b946020939093013593505050565b600060208284031215610914578081fd5b815161075181610be2565b600080600060608486031215610933578081fd5b833561093e81610bca565b925060208401359150604084013561095581610bca565b809150509250925092565b60008251610972818460208701610b9a565b9190910192915050565b6001600160a01b0391909116815260200190565b6001600160a01b03929092168252602082015260400190565b901515815260200190565b60006020825282518060208401526109d3816040850160208701610b9a565b601f01601f19169190910160400192915050565b6020808252602a908201527f5361666542455032303a204245503230206f7065726174696f6e20646964206e6040820152691bdd081cdd58d8d9595960b21b606082015260800190565b60208082526026908201527f4f776e61626c653a206e6577206f776e657220697320746865207a65726f206160408201526564647265737360d01b606082015260800190565b60208082526026908201527f416464726573733a20696e73756666696369656e742062616c616e636520666f6040820152651c8818d85b1b60d21b606082015260800190565b6020808252818101527f4f776e61626c653a2063616c6c6572206973206e6f7420746865206f776e6572604082015260600190565b6020808252601d908201527f416464726573733a2063616c6c20746f206e6f6e2d636f6e7472616374000000604082015260600190565b60208082526024908201527f4f70657261746f723a2063616c6c6572206973206e6f7420746865206f70657260408201526330ba37b960e11b606082015260800190565b90815260200190565b60008219821115610b9557634e487b7160e01b81526011600452602481fd5b500190565b60005b83811015610bb5578181015183820152602001610b9d565b83811115610bc4576000848401525b50505050565b6001600160a01b0381168114610bdf57600080fd5b50565b8015158114610bdf57600080fdfea26469706673582212205fde0b9ba075b7b33e77cfd190fa29a419e29e01a0f8970232e633810b56733464736f6c63430008000033",
			"opcodes": "PUSH1 0x80 PUSH1 0x40 MSTORE CALLVALUE DUP1 ISZERO PUSH2 0x10 JUMPI PUSH1 0x0 DUP1 REVERT JUMPDEST POP PUSH1 0x0 PUSH2 0x1B PUSH2 0x6A JUMP JUMPDEST PUSH1 0x0 DUP1 SLOAD PUSH1 0x1 PUSH1 0x1 PUSH1 0xA0 SHL SUB NOT AND PUSH1 0x1 PUSH1 0x1 PUSH1 0xA0 SHL SUB DUP4 AND SWAP1 DUP2 OR DUP3 SSTORE PUSH1 0x40 MLOAD SWAP3 SWAP4 POP SWAP2 PUSH32 0x8BE0079C531659141344CD1FD0A4F28419497F9722A3DAAFE3B4186F6B6457E0 SWAP1 DUP3 SWAP1 LOG3 POP PUSH2 0x6E JUMP JUMPDEST CALLER SWAP1 JUMP JUMPDEST PUSH2 0xC26 DUP1 PUSH2 0x7D PUSH1 0x0 CODECOPY PUSH1 0x0 RETURN INVALID PUSH1 0x80 PUSH1 0x40 MSTORE CALLVALUE DUP1 ISZERO PUSH2 0x10 JUMPI PUSH1 0x0 DUP1 REVERT JUMPDEST POP PUSH1 0x4 CALLDATASIZE LT PUSH2 0xB4 JUMPI PUSH1 0x0 CALLDATALOAD PUSH1 0xE0 SHR DUP1 PUSH4 0x715018A6 GT PUSH2 0x71 JUMPI DUP1 PUSH4 0x715018A6 EQ PUSH2 0x15D JUMPI DUP1 PUSH4 0x79547628 EQ PUSH2 0x165 JUMPI DUP1 PUSH4 0x8DA5CB5B EQ PUSH2 0x178 JUMPI DUP1 PUSH4 0x9ECFC6EA EQ PUSH2 0x180 JUMPI DUP1 PUSH4 0xDC1694B8 EQ PUSH2 0x193 JUMPI DUP1 PUSH4 0xF2FDE38B EQ PUSH2 0x1A6 JUMPI PUSH2 0xB4 JUMP JUMPDEST DUP1 PUSH4 0xC7F7B6B EQ PUSH2 0xB9 JUMPI DUP1 PUSH4 0x13E7C9D8 EQ PUSH2 0xCE JUMPI DUP1 PUSH4 0x4A3B68CC EQ PUSH2 0xF7 JUMPI DUP1 PUSH4 0x4A9FEFC7 EQ PUSH2 0x117 JUMPI DUP1 PUSH4 0x6B366C66 EQ PUSH2 0x12A JUMPI DUP1 PUSH4 0x6D44A3B2 EQ PUSH2 0x14A JUMPI JUMPDEST PUSH1 0x0 DUP1 REVERT JUMPDEST PUSH2 0xCC PUSH2 0xC7 CALLDATASIZE PUSH1 0x4 PUSH2 0x873 JUMP JUMPDEST PUSH2 0x1B9 JUMP JUMPDEST STOP JUMPDEST PUSH2 0xE1 PUSH2 0xDC CALLDATASIZE PUSH1 0x4 PUSH2 0x857 JUMP JUMPDEST PUSH2 0x2E6 JUMP JUMPDEST PUSH1 0x40 MLOAD PUSH2 0xEE SWAP2 SWAP1 PUSH2 0x9A9 JUMP JUMPDEST PUSH1 0x40 MLOAD DUP1 SWAP2 SUB SWAP1 RETURN JUMPDEST PUSH2 0x10A PUSH2 0x105 CALLDATASIZE PUSH1 0x4 PUSH2 0x857 JUMP JUMPDEST PUSH2 0x2FB JUMP JUMPDEST PUSH1 0x40 MLOAD PUSH2 0xEE SWAP2 SWAP1 PUSH2 0x97C JUMP JUMPDEST PUSH2 0x10A PUSH2 0x125 CALLDATASIZE PUSH1 0x4 PUSH2 0x857 JUMP JUMPDEST PUSH2 0x316 JUMP JUMPDEST PUSH2 0x13D PUSH2 0x138 CALLDATASIZE PUSH1 0x4 PUSH2 0x857 JUMP JUMPDEST PUSH2 0x334 JUMP JUMPDEST PUSH1 0x40 MLOAD PUSH2 0xEE SWAP2 SWAP1 PUSH2 0xB6D JUMP JUMPDEST PUSH2 0xCC PUSH2 0x158 CALLDATASIZE PUSH1 0x4 PUSH2 0x8AB JUMP JUMPDEST PUSH2 0x346 JUMP JUMPDEST PUSH2 0xCC PUSH2 0x3D9 JUMP JUMPDEST PUSH2 0xCC PUSH2 0x173 CALLDATASIZE PUSH1 0x4 PUSH2 0x91F JUMP JUMPDEST PUSH2 0x462 JUMP JUMPDEST PUSH2 0x10A PUSH2 0x4BA JUMP JUMPDEST PUSH2 0x13D PUSH2 0x18E CALLDATASIZE PUSH1 0x4 PUSH2 0x857 JUMP JUMPDEST PUSH2 0x4C9 JUMP JUMPDEST PUSH2 0xCC PUSH2 0x1A1 CALLDATASIZE PUSH1 0x4 PUSH2 0x8D8 JUMP JUMPDEST PUSH2 0x4DB JUMP JUMPDEST PUSH2 0xCC PUSH2 0x1B4 CALLDATASIZE PUSH1 0x4 PUSH2 0x857 JUMP JUMPDEST PUSH2 0x59B JUMP JUMPDEST CALLER PUSH1 0x0 SWAP1 DUP2 MSTORE PUSH1 0x1 PUSH1 0x20 MSTORE PUSH1 0x40 SWAP1 KECCAK256 SLOAD PUSH1 0xFF AND PUSH2 0x1F1 JUMPI PUSH1 0x40 MLOAD PUSH3 0x461BCD PUSH1 0xE5 SHL DUP2 MSTORE PUSH1 0x4 ADD PUSH2 0x1E8 SWAP1 PUSH2 0xB29 JUMP JUMPDEST PUSH1 0x40 MLOAD DUP1 SWAP2 SUB SWAP1 REVERT JUMPDEST PUSH1 0x1 PUSH1 0x1 PUSH1 0xA0 SHL SUB DUP3 AND ISZERO DUP1 ISZERO SWAP1 PUSH2 0x211 JUMPI POP PUSH1 0x1 PUSH1 0x1 PUSH1 0xA0 SHL SUB DUP2 AND ISZERO ISZERO JUMPDEST DUP1 ISZERO PUSH2 0x22F JUMPI POP DUP1 PUSH1 0x1 PUSH1 0x1 PUSH1 0xA0 SHL SUB AND DUP3 PUSH1 0x1 PUSH1 0x1 PUSH1 0xA0 SHL SUB AND EQ ISZERO JUMPDEST DUP1 ISZERO PUSH2 0x253 JUMPI POP PUSH1 0x1 PUSH1 0x1 PUSH1 0xA0 SHL SUB DUP3 DUP2 AND PUSH1 0x0 SWAP1 DUP2 MSTORE PUSH1 0x2 PUSH1 0x20 MSTORE PUSH1 0x40 SWAP1 KECCAK256 SLOAD AND ISZERO JUMPDEST ISZERO PUSH2 0x2E2 JUMPI PUSH1 0x1 PUSH1 0x1 PUSH1 0xA0 SHL SUB DUP3 DUP2 AND PUSH1 0x0 SWAP1 DUP2 MSTORE PUSH1 0x2 PUSH1 0x20 SWAP1 DUP2 MSTORE PUSH1 0x40 DUP1 DUP4 KECCAK256 DUP1 SLOAD PUSH1 0x1 PUSH1 0x1 PUSH1 0xA0 SHL SUB NOT AND SWAP5 DUP7 AND SWAP5 DUP6 OR SWAP1 SSTORE SWAP3 DUP3 MSTORE PUSH1 0x3 SWAP1 MSTORE SWAP1 DUP2 KECCAK256 DUP1 SLOAD PUSH1 0x1 SWAP3 SWAP1 PUSH2 0x2A3 SWAP1 DUP5 SWAP1 PUSH2 0xB76 JUMP JUMPDEST SWAP1 SWAP2 SSTORE POP POP PUSH1 0x40 MLOAD PUSH1 0x1 PUSH1 0x1 PUSH1 0xA0 SHL SUB DUP1 DUP4 AND SWAP2 SWAP1 DUP5 AND SWAP1 PUSH32 0xF61CCBE316DAFF56654ABED758191F9A4DCAC526D43747A50A2D545C0CA64D82 SWAP1 PUSH1 0x0 SWAP1 LOG3 JUMPDEST POP POP JUMP JUMPDEST PUSH1 0x1 PUSH1 0x20 MSTORE PUSH1 0x0 SWAP1 DUP2 MSTORE PUSH1 0x40 SWAP1 KECCAK256 SLOAD PUSH1 0xFF AND DUP2 JUMP JUMPDEST PUSH1 0x2 PUSH1 0x20 MSTORE PUSH1 0x0 SWAP1 DUP2 MSTORE PUSH1 0x40 SWAP1 KECCAK256 SLOAD PUSH1 0x1 PUSH1 0x1 PUSH1 0xA0 SHL SUB AND DUP2 JUMP JUMPDEST PUSH1 0x1 PUSH1 0x1 PUSH1 0xA0 SHL SUB SWAP1 DUP2 AND PUSH1 0x0 SWAP1 DUP2 MSTORE PUSH1 0x2 PUSH1 0x20 MSTORE PUSH1 0x40 SWAP1 KECCAK256 SLOAD AND SWAP1 JUMP JUMPDEST PUSH1 0x3 PUSH1 0x20 MSTORE PUSH1 0x0 SWAP1 DUP2 MSTORE PUSH1 0x40 SWAP1 KECCAK256 SLOAD DUP2 JUMP JUMPDEST PUSH2 0x34E PUSH2 0x65B JUMP JUMPDEST PUSH1 0x1 PUSH1 0x1 PUSH1 0xA0 SHL SUB AND PUSH2 0x35F PUSH2 0x4BA JUMP JUMPDEST PUSH1 0x1 PUSH1 0x1 PUSH1 0xA0 SHL SUB AND EQ PUSH2 0x385 JUMPI PUSH1 0x40 MLOAD PUSH3 0x461BCD PUSH1 0xE5 SHL DUP2 MSTORE PUSH1 0x4 ADD PUSH2 0x1E8 SWAP1 PUSH2 0xABD JUMP JUMPDEST PUSH1 0x1 PUSH1 0x1 PUSH1 0xA0 SHL SUB DUP3 AND PUSH1 0x0 DUP2 DUP2 MSTORE PUSH1 0x1 PUSH1 0x20 MSTORE PUSH1 0x40 DUP1 DUP3 KECCAK256 DUP1 SLOAD PUSH1 0xFF NOT AND DUP6 ISZERO ISZERO SWAP1 DUP2 OR SWAP1 SWAP2 SSTORE SWAP1 MLOAD SWAP1 SWAP3 SWAP2 PUSH32 0x966C160E1C4DBC7DF8D69AF4ACE01E9297C3CF016397B7914971F2FBFA32672D SWAP2 LOG3 POP POP JUMP JUMPDEST PUSH2 0x3E1 PUSH2 0x65B JUMP JUMPDEST PUSH1 0x1 PUSH1 0x1 PUSH1 0xA0 SHL SUB AND PUSH2 0x3F2 PUSH2 0x4BA JUMP JUMPDEST PUSH1 0x1 PUSH1 0x1 PUSH1 0xA0 SHL SUB AND EQ PUSH2 0x418 JUMPI PUSH1 0x40 MLOAD PUSH3 0x461BCD PUSH1 0xE5 SHL DUP2 MSTORE PUSH1 0x4 ADD PUSH2 0x1E8 SWAP1 PUSH2 0xABD JUMP JUMPDEST PUSH1 0x0 DUP1 SLOAD PUSH1 0x40 MLOAD PUSH1 0x1 PUSH1 0x1 PUSH1 0xA0 SHL SUB SWAP1 SWAP2 AND SWAP1 PUSH32 0x8BE0079C531659141344CD1FD0A4F28419497F9722A3DAAFE3B4186F6B6457E0 SWAP1 DUP4 SWAP1 LOG3 PUSH1 0x0 DUP1 SLOAD PUSH1 0x1 PUSH1 0x1 PUSH1 0xA0 SHL SUB NOT AND SWAP1 SSTORE JUMP JUMPDEST PUSH2 0x46A PUSH2 0x65B JUMP JUMPDEST PUSH1 0x1 PUSH1 0x1 PUSH1 0xA0 SHL SUB AND PUSH2 0x47B PUSH2 0x4BA JUMP JUMPDEST PUSH1 0x1 PUSH1 0x1 PUSH1 0xA0 SHL SUB AND EQ PUSH2 0x4A1 JUMPI PUSH1 0x40 MLOAD PUSH3 0x461BCD PUSH1 0xE5 SHL DUP2 MSTORE PUSH1 0x4 ADD PUSH2 0x1E8 SWAP1 PUSH2 0xABD JUMP JUMPDEST PUSH2 0x4B5 PUSH1 0x1 PUSH1 0x1 PUSH1 0xA0 SHL SUB DUP5 AND DUP3 DUP5 PUSH2 0x65F JUMP JUMPDEST POP POP POP JUMP JUMPDEST PUSH1 0x0 SLOAD PUSH1 0x1 PUSH1 0x1 PUSH1 0xA0 SHL SUB AND SWAP1 JUMP JUMPDEST PUSH1 0x4 PUSH1 0x20 MSTORE PUSH1 0x0 SWAP1 DUP2 MSTORE PUSH1 0x40 SWAP1 KECCAK256 SLOAD DUP2 JUMP JUMPDEST CALLER PUSH1 0x0 SWAP1 DUP2 MSTORE PUSH1 0x1 PUSH1 0x20 MSTORE PUSH1 0x40 SWAP1 KECCAK256 SLOAD PUSH1 0xFF AND PUSH2 0x50A JUMPI PUSH1 0x40 MLOAD PUSH3 0x461BCD PUSH1 0xE5 SHL DUP2 MSTORE PUSH1 0x4 ADD PUSH2 0x1E8 SWAP1 PUSH2 0xB29 JUMP JUMPDEST PUSH1 0x1 PUSH1 0x1 PUSH1 0xA0 SHL SUB DUP3 AND ISZERO DUP1 ISZERO SWAP1 PUSH2 0x522 JUMPI POP PUSH1 0x0 DUP2 GT JUMPDEST ISZERO PUSH2 0x2E2 JUMPI PUSH1 0x1 PUSH1 0x1 PUSH1 0xA0 SHL SUB DUP3 AND PUSH1 0x0 SWAP1 DUP2 MSTORE PUSH1 0x4 PUSH1 0x20 MSTORE PUSH1 0x40 DUP2 KECCAK256 DUP1 SLOAD DUP4 SWAP3 SWAP1 PUSH2 0x54F SWAP1 DUP5 SWAP1 PUSH2 0xB76 JUMP JUMPDEST SWAP3 POP POP DUP2 SWAP1 SSTORE POP DUP2 PUSH1 0x1 PUSH1 0x1 PUSH1 0xA0 SHL SUB AND PUSH32 0x91BADD4EF769CF56B7DB0B350B95C9FB6D973E6E37D28A51FED219CC7D53184F DUP3 PUSH1 0x40 MLOAD PUSH2 0x58F SWAP2 SWAP1 PUSH2 0xB6D JUMP JUMPDEST PUSH1 0x40 MLOAD DUP1 SWAP2 SUB SWAP1 LOG2 POP POP JUMP JUMPDEST PUSH2 0x5A3 PUSH2 0x65B JUMP JUMPDEST PUSH1 0x1 PUSH1 0x1 PUSH1 0xA0 SHL SUB AND PUSH2 0x5B4 PUSH2 0x4BA JUMP JUMPDEST PUSH1 0x1 PUSH1 0x1 PUSH1 0xA0 SHL SUB AND EQ PUSH2 0x5DA JUMPI PUSH1 0x40 MLOAD PUSH3 0x461BCD PUSH1 0xE5 SHL DUP2 MSTORE PUSH1 0x4 ADD PUSH2 0x1E8 SWAP1 PUSH2 0xABD JUMP JUMPDEST PUSH1 0x1 PUSH1 0x1 PUSH1 0xA0 SHL SUB DUP2 AND PUSH2 0x600 JUMPI PUSH1 0x40 MLOAD PUSH3 0x461BCD PUSH1 0xE5 SHL DUP2 MSTORE PUSH1 0x4 ADD PUSH2 0x1E8 SWAP1 PUSH2 0xA31 JUMP JUMPDEST PUSH1 0x0 DUP1 SLOAD PUSH1 0x40 MLOAD PUSH1 0x1 PUSH1 0x1 PUSH1 0xA0 SHL SUB DUP1 DUP6 AND SWAP4 SWAP3 AND SWAP2 PUSH32 0x8BE0079C531659141344CD1FD0A4F28419497F9722A3DAAFE3B4186F6B6457E0 SWAP2 LOG3 PUSH1 0x0 DUP1 SLOAD PUSH1 0x1 PUSH1 0x1 PUSH1 0xA0 SHL SUB NOT AND PUSH1 0x1 PUSH1 0x1 PUSH1 0xA0 SHL SUB SWAP3 SWAP1 SWAP3 AND SWAP2 SWAP1 SWAP2 OR SWAP1 SSTORE JUMP JUMPDEST CALLER SWAP1 JUMP JUMPDEST PUSH2 0x4B5 DUP4 PUSH4 0xA9059CBB PUSH1 0xE0 SHL DUP5 DUP5 PUSH1 0x40 MLOAD PUSH1 0x24 ADD PUSH2 0x67E SWAP3 SWAP2 SWAP1 PUSH2 0x990 JUMP JUMPDEST PUSH1 0x40 DUP1 MLOAD PUSH1 0x1F NOT DUP2 DUP5 SUB ADD DUP2 MSTORE SWAP2 SWAP1 MSTORE PUSH1 0x20 DUP2 ADD DUP1 MLOAD PUSH1 0x1 PUSH1 0x1 PUSH1 0xE0 SHL SUB AND PUSH1 0x1 PUSH1 0x1 PUSH1 0xE0 SHL SUB NOT SWAP1 SWAP4 AND SWAP3 SWAP1 SWAP3 OR SWAP1 SWAP2 MSTORE PUSH1 0x0 PUSH2 0x705 DUP3 PUSH1 0x40 MLOAD DUP1 PUSH1 0x40 ADD PUSH1 0x40 MSTORE DUP1 PUSH1 0x20 DUP2 MSTORE PUSH1 0x20 ADD PUSH32 0x5361666542455032303A206C6F772D6C6576656C2063616C6C206661696C6564 DUP2 MSTORE POP DUP6 PUSH1 0x1 PUSH1 0x1 PUSH1 0xA0 SHL SUB AND PUSH2 0x73F SWAP1 SWAP3 SWAP2 SWAP1 PUSH4 0xFFFFFFFF AND JUMP JUMPDEST DUP1 MLOAD SWAP1 SWAP2 POP ISZERO PUSH2 0x4B5 JUMPI DUP1 DUP1 PUSH1 0x20 ADD SWAP1 MLOAD DUP2 ADD SWAP1 PUSH2 0x723 SWAP2 SWAP1 PUSH2 0x903 JUMP JUMPDEST PUSH2 0x4B5 JUMPI PUSH1 0x40 MLOAD PUSH3 0x461BCD PUSH1 0xE5 SHL DUP2 MSTORE PUSH1 0x4 ADD PUSH2 0x1E8 SWAP1 PUSH2 0x9E7 JUMP JUMPDEST PUSH1 0x60 PUSH2 0x74E DUP5 DUP5 PUSH1 0x0 DUP6 PUSH2 0x758 JUMP JUMPDEST SWAP1 POP JUMPDEST SWAP4 SWAP3 POP POP POP JUMP JUMPDEST PUSH1 0x60 DUP3 SELFBALANCE LT ISZERO PUSH2 0x77A JUMPI PUSH1 0x40 MLOAD PUSH3 0x461BCD PUSH1 0xE5 SHL DUP2 MSTORE PUSH1 0x4 ADD PUSH2 0x1E8 SWAP1 PUSH2 0xA77 JUMP JUMPDEST PUSH2 0x783 DUP6 PUSH2 0x818 JUMP JUMPDEST PUSH2 0x79F JUMPI PUSH1 0x40 MLOAD PUSH3 0x461BCD PUSH1 0xE5 SHL DUP2 MSTORE PUSH1 0x4 ADD PUSH2 0x1E8 SWAP1 PUSH2 0xAF2 JUMP JUMPDEST PUSH1 0x0 DUP1 DUP7 PUSH1 0x1 PUSH1 0x1 PUSH1 0xA0 SHL SUB AND DUP6 DUP8 PUSH1 0x40 MLOAD PUSH2 0x7BB SWAP2 SWAP1 PUSH2 0x960 JUMP JUMPDEST PUSH1 0x0 PUSH1 0x40 MLOAD DUP1 DUP4 SUB DUP2 DUP6 DUP8 GAS CALL SWAP3 POP POP POP RETURNDATASIZE DUP1 PUSH1 0x0 DUP2 EQ PUSH2 0x7F8 JUMPI PUSH1 0x40 MLOAD SWAP2 POP PUSH1 0x1F NOT PUSH1 0x3F RETURNDATASIZE ADD AND DUP3 ADD PUSH1 0x40 MSTORE RETURNDATASIZE DUP3 MSTORE RETURNDATASIZE PUSH1 0x0 PUSH1 0x20 DUP5 ADD RETURNDATACOPY PUSH2 0x7FD JUMP JUMPDEST PUSH1 0x60 SWAP2 POP JUMPDEST POP SWAP2 POP SWAP2 POP PUSH2 0x80D DUP3 DUP3 DUP7 PUSH2 0x81E JUMP JUMPDEST SWAP8 SWAP7 POP POP POP POP POP POP POP JUMP JUMPDEST EXTCODESIZE ISZERO ISZERO SWAP1 JUMP JUMPDEST PUSH1 0x60 DUP4 ISZERO PUSH2 0x82D JUMPI POP DUP2 PUSH2 0x751 JUMP JUMPDEST DUP3 MLOAD ISZERO PUSH2 0x83D JUMPI DUP3 MLOAD DUP1 DUP5 PUSH1 0x20 ADD REVERT JUMPDEST DUP2 PUSH1 0x40 MLOAD PUSH3 0x461BCD PUSH1 0xE5 SHL DUP2 MSTORE PUSH1 0x4 ADD PUSH2 0x1E8 SWAP2 SWAP1 PUSH2 0x9B4 JUMP JUMPDEST PUSH1 0x0 PUSH1 0x20 DUP3 DUP5 SUB SLT ISZERO PUSH2 0x868 JUMPI DUP1 DUP2 REVERT JUMPDEST DUP2 CALLDATALOAD PUSH2 0x751 DUP2 PUSH2 0xBCA JUMP JUMPDEST PUSH1 0x0 DUP1 PUSH1 0x40 DUP4 DUP6 SUB SLT ISZERO PUSH2 0x885 JUMPI DUP1 DUP2 REVERT JUMPDEST DUP3 CALLDATALOAD PUSH2 0x890 DUP2 PUSH2 0xBCA JUMP JUMPDEST SWAP2 POP PUSH1 0x20 DUP4 ADD CALLDATALOAD PUSH2 0x8A0 DUP2 PUSH2 0xBCA JUMP JUMPDEST DUP1 SWAP2 POP POP SWAP3 POP SWAP3 SWAP1 POP JUMP JUMPDEST PUSH1 0x0 DUP1 PUSH1 0x40 DUP4 DUP6 SUB SLT ISZERO PUSH2 0x8BD JUMPI DUP2 DUP3 REVERT JUMPDEST DUP3 CALLDATALOAD PUSH2 0x8C8 DUP2 PUSH2 0xBCA JUMP JUMPDEST SWAP2 POP PUSH1 0x20 DUP4 ADD CALLDATALOAD PUSH2 0x8A0 DUP2 PUSH2 0xBE2 JUMP JUMPDEST PUSH1 0x0 DUP1 PUSH1 0x40 DUP4 DUP6 SUB SLT ISZERO PUSH2 0x8EA JUMPI DUP2 DUP3 REVERT JUMPDEST DUP3 CALLDATALOAD PUSH2 0x8F5 DUP2 PUSH2 0xBCA JUMP JUMPDEST SWAP5 PUSH1 0x20 SWAP4 SWAP1 SWAP4 ADD CALLDATALOAD SWAP4 POP POP POP JUMP JUMPDEST PUSH1 0x0 PUSH1 0x20 DUP3 DUP5 SUB SLT ISZERO PUSH2 0x914 JUMPI DUP1 DUP2 REVERT JUMPDEST DUP2 MLOAD PUSH2 0x751 DUP2 PUSH2 0xBE2 JUMP JUMPDEST PUSH1 0x0 DUP1 PUSH1 0x0 PUSH1 0x60 DUP5 DUP7 SUB SLT ISZERO PUSH2 0x933 JUMPI DUP1 DUP2 REVERT JUMPDEST DUP4 CALLDATALOAD PUSH2 0x93E DUP2 PUSH2 0xBCA JUMP JUMPDEST SWAP3 POP PUSH1 0x20 DUP5 ADD CALLDATALOAD SWAP2 POP PUSH1 0x40 DUP5 ADD CALLDATALOAD PUSH2 0x955 DUP2 PUSH2 0xBCA JUMP JUMPDEST DUP1 SWAP2 POP POP SWAP3 POP SWAP3 POP SWAP3 JUMP JUMPDEST PUSH1 0x0 DUP3 MLOAD PUSH2 0x972 DUP2 DUP5 PUSH1 0x20 DUP8 ADD PUSH2 0xB9A JUMP JUMPDEST SWAP2 SWAP1 SWAP2 ADD SWAP3 SWAP2 POP POP JUMP JUMPDEST PUSH1 0x1 PUSH1 0x1 PUSH1 0xA0 SHL SUB SWAP2 SWAP1 SWAP2 AND DUP2 MSTORE PUSH1 0x20 ADD SWAP1 JUMP JUMPDEST PUSH1 0x1 PUSH1 0x1 PUSH1 0xA0 SHL SUB SWAP3 SWAP1 SWAP3 AND DUP3 MSTORE PUSH1 0x20 DUP3 ADD MSTORE PUSH1 0x40 ADD SWAP1 JUMP JUMPDEST SWAP1 ISZERO ISZERO DUP2 MSTORE PUSH1 0x20 ADD SWAP1 JUMP JUMPDEST PUSH1 0x0 PUSH1 0x20 DUP3 MSTORE DUP3 MLOAD DUP1 PUSH1 0x20 DUP5 ADD MSTORE PUSH2 0x9D3 DUP2 PUSH1 0x40 DUP6 ADD PUSH1 0x20 DUP8 ADD PUSH2 0xB9A JUMP JUMPDEST PUSH1 0x1F ADD PUSH1 0x1F NOT AND SWAP2 SWAP1 SWAP2 ADD PUSH1 0x40 ADD SWAP3 SWAP2 POP POP JUMP JUMPDEST PUSH1 0x20 DUP1 DUP3 MSTORE PUSH1 0x2A SWAP1 DUP3 ADD MSTORE PUSH32 0x5361666542455032303A204245503230206F7065726174696F6E20646964206E PUSH1 0x40 DUP3 ADD MSTORE PUSH10 0x1BDD081CDD58D8D95959 PUSH1 0xB2 SHL PUSH1 0x60 DUP3 ADD MSTORE PUSH1 0x80 ADD SWAP1 JUMP JUMPDEST PUSH1 0x20 DUP1 DUP3 MSTORE PUSH1 0x26 SWAP1 DUP3 ADD MSTORE PUSH32 0x4F776E61626C653A206E6577206F776E657220697320746865207A65726F2061 PUSH1 0x40 DUP3 ADD MSTORE PUSH6 0x646472657373 PUSH1 0xD0 SHL PUSH1 0x60 DUP3 ADD MSTORE PUSH1 0x80 ADD SWAP1 JUMP JUMPDEST PUSH1 0x20 DUP1 DUP3 MSTORE PUSH1 0x26 SWAP1 DUP3 ADD MSTORE PUSH32 0x416464726573733A20696E73756666696369656E742062616C616E636520666F PUSH1 0x40 DUP3 ADD MSTORE PUSH6 0x1C8818D85B1B PUSH1 0xD2 SHL PUSH1 0x60 DUP3 ADD MSTORE PUSH1 0x80 ADD SWAP1 JUMP JUMPDEST PUSH1 0x20 DUP1 DUP3 MSTORE DUP2 DUP2 ADD MSTORE PUSH32 0x4F776E61626C653A2063616C6C6572206973206E6F7420746865206F776E6572 PUSH1 0x40 DUP3 ADD MSTORE PUSH1 0x60 ADD SWAP1 JUMP JUMPDEST PUSH1 0x20 DUP1 DUP3 MSTORE PUSH1 0x1D SWAP1 DUP3 ADD MSTORE PUSH32 0x416464726573733A2063616C6C20746F206E6F6E2D636F6E7472616374000000 PUSH1 0x40 DUP3 ADD MSTORE PUSH1 0x60 ADD SWAP1 JUMP JUMPDEST PUSH1 0x20 DUP1 DUP3 MSTORE PUSH1 0x24 SWAP1 DUP3 ADD MSTORE PUSH32 0x4F70657261746F723A2063616C6C6572206973206E6F7420746865206F706572 PUSH1 0x40 DUP3 ADD MSTORE PUSH4 0x30BA37B9 PUSH1 0xE1 SHL PUSH1 0x60 DUP3 ADD MSTORE PUSH1 0x80 ADD SWAP1 JUMP JUMPDEST SWAP1 DUP2 MSTORE PUSH1 0x20 ADD SWAP1 JUMP JUMPDEST PUSH1 0x0 DUP3 NOT DUP3 GT ISZERO PUSH2 0xB95 JUMPI PUSH4 0x4E487B71 PUSH1 0xE0 SHL DUP2 MSTORE PUSH1 0x11 PUSH1 0x4 MSTORE PUSH1 0x24 DUP2 REVERT JUMPDEST POP ADD SWAP1 JUMP JUMPDEST PUSH1 0x0 JUMPDEST DUP4 DUP2 LT ISZERO PUSH2 0xBB5 JUMPI DUP2 DUP2 ADD MLOAD DUP4 DUP3 ADD MSTORE PUSH1 0x20 ADD PUSH2 0xB9D JUMP JUMPDEST DUP4 DUP2 GT ISZERO PUSH2 0xBC4 JUMPI PUSH1 0x0 DUP5 DUP5 ADD MSTORE JUMPDEST POP POP POP POP JUMP JUMPDEST PUSH1 0x1 PUSH1 0x1 PUSH1 0xA0 SHL SUB DUP2 AND DUP2 EQ PUSH2 0xBDF JUMPI PUSH1 0x0 DUP1 REVERT JUMPDEST POP JUMP JUMPDEST DUP1 ISZERO ISZERO DUP2 EQ PUSH2 0xBDF JUMPI PUSH1 0x0 DUP1 REVERT INVALID LOG2 PUSH5 0x6970667358 0x22 SLT KECCAK256 0x5F 0xDE SIGNEXTEND SWAP12 LOG0 PUSH22 0xB7B33E77CFD190FA29A419E29E01A0F8970232E63381 SIGNEXTEND JUMP PUSH20 0x3464736F6C634300080000330000000000000000 "
		},
		"gasEstimates": {
			"creation": {
				"codeDepositCost": "622000",
				"executionCost": "23092",
				"totalCost": "645092"
			},
			"external": {
				"drainBEP20Token(address,uint256,address)": "infinite",
				"getReferrer(address)": "1364",
				"operators(address)": "1281",
				"owner()": "1114",
				"recordReferral(address,address)": "infinite",
				"recordReferralCommission(address,uint256)": "23850",
				"referralsCount(address)": "1335",
				"referrers(address)": "1333",
				"renounceOwnership()": "24255",
				"totalReferralCommissions(address)": "1312",
				"transferOwnership(address)": "24594",
				"updateOperator(address,bool)": "infinite"
			}
		},
		"methodIdentifiers": {
			"drainBEP20Token(address,uint256,address)": "79547628",
			"getReferrer(address)": "4a9fefc7",
			"operators(address)": "13e7c9d8",
			"owner()": "8da5cb5b",
			"recordReferral(address,address)": "0c7f7b6b",
			"recordReferralCommission(address,uint256)": "dc1694b8",
			"referralsCount(address)": "6b366c66",
			"referrers(address)": "4a3b68cc",
			"renounceOwnership()": "715018a6",
			"totalReferralCommissions(address)": "9ecfc6ea",
			"transferOwnership(address)": "f2fde38b",
			"updateOperator(address,bool)": "6d44a3b2"
		}
	},
	"abi": [
		{
			"anonymous": false,
			"inputs": [
				{
					"indexed": true,
					"internalType": "address",
					"name": "operator",
					"type": "address"
				},
				{
					"indexed": true,
					"internalType": "bool",
					"name": "status",
					"type": "bool"
				}
			],
			"name": "OperatorUpdated",
			"type": "event"
		},
		{
			"anonymous": false,
			"inputs": [
				{
					"indexed": true,
					"internalType": "address",
					"name": "previousOwner",
					"type": "address"
				},
				{
					"indexed": true,
					"internalType": "address",
					"name": "newOwner",
					"type": "address"
				}
			],
			"name": "OwnershipTransferred",
			"type": "event"
		},
		{
			"anonymous": false,
			"inputs": [
				{
					"indexed": true,
					"internalType": "address",
					"name": "referrer",
					"type": "address"
				},
				{
					"indexed": false,
					"internalType": "uint256",
					"name": "commission",
					"type": "uint256"
				}
			],
			"name": "ReferralCommissionRecorded",
			"type": "event"
		},
		{
			"anonymous": false,
			"inputs": [
				{
					"indexed": true,
					"internalType": "address",
					"name": "user",
					"type": "address"
				},
				{
					"indexed": true,
					"internalType": "address",
					"name": "referrer",
					"type": "address"
				}
			],
			"name": "ReferralRecorded",
			"type": "event"
		},
		{
			"inputs": [
				{
					"internalType": "contract IBEP20",
					"name": "_token",
					"type": "address"
				},
				{
					"internalType": "uint256",
					"name": "_amount",
					"type": "uint256"
				},
				{
					"internalType": "address",
					"name": "_to",
					"type": "address"
				}
			],
			"name": "drainBEP20Token",
			"outputs": [],
			"stateMutability": "nonpayable",
			"type": "function"
		},
		{
			"inputs": [
				{
					"internalType": "address",
					"name": "_user",
					"type": "address"
				}
			],
			"name": "getReferrer",
			"outputs": [
				{
					"internalType": "address",
					"name": "",
					"type": "address"
				}
			],
			"stateMutability": "view",
			"type": "function"
		},
		{
			"inputs": [
				{
					"internalType": "address",
					"name": "",
					"type": "address"
				}
			],
			"name": "operators",
			"outputs": [
				{
					"internalType": "bool",
					"name": "",
					"type": "bool"
				}
			],
			"stateMutability": "view",
			"type": "function"
		},
		{
			"inputs": [],
			"name": "owner",
			"outputs": [
				{
					"internalType": "address",
					"name": "",
					"type": "address"
				}
			],
			"stateMutability": "view",
			"type": "function"
		},
		{
			"inputs": [
				{
					"internalType": "address",
					"name": "_user",
					"type": "address"
				},
				{
					"internalType": "address",
					"name": "_referrer",
					"type": "address"
				}
			],
			"name": "recordReferral",
			"outputs": [],
			"stateMutability": "nonpayable",
			"type": "function"
		},
		{
			"inputs": [
				{
					"internalType": "address",
					"name": "_referrer",
					"type": "address"
				},
				{
					"internalType": "uint256",
					"name": "_commission",
					"type": "uint256"
				}
			],
			"name": "recordReferralCommission",
			"outputs": [],
			"stateMutability": "nonpayable",
			"type": "function"
		},
		{
			"inputs": [
				{
					"internalType": "address",
					"name": "",
					"type": "address"
				}
			],
			"name": "referralsCount",
			"outputs": [
				{
					"internalType": "uint256",
					"name": "",
					"type": "uint256"
				}
			],
			"stateMutability": "view",
			"type": "function"
		},
		{
			"inputs": [
				{
					"internalType": "address",
					"name": "",
					"type": "address"
				}
			],
			"name": "referrers",
			"outputs": [
				{
					"internalType": "address",
					"name": "",
					"type": "address"
				}
			],
			"stateMutability": "view",
			"type": "function"
		},
		{
			"inputs": [],
			"name": "renounceOwnership",
			"outputs": [],
			"stateMutability": "nonpayable",
			"type": "function"
		},
		{
			"inputs": [
				{
					"internalType": "address",
					"name": "",
					"type": "address"
				}
			],
			"name": "totalReferralCommissions",
			"outputs": [
				{
					"internalType": "uint256",
					"name": "",
					"type": "uint256"
				}
			],
			"stateMutability": "view",
			"type": "function"
		},
		{
			"inputs": [
				{
					"internalType": "address",
					"name": "newOwner",
					"type": "address"
				}
			],
			"name": "transferOwnership",
			"outputs": [],
			"stateMutability": "nonpayable",
			"type": "function"
		},
		{
			"inputs": [
				{
					"internalType": "address",
					"name": "_operator",
					"type": "address"
				},
				{
					"internalType": "bool",
					"name": "_status",
					"type": "bool"
				}
			],
			"name": "updateOperator",
			"outputs": [],
			"stateMutability": "nonpayable",
			"type": "function"
		}
	]
}